{
	"ai-audit-blockchain/AuditRegistry.sol": {
		"AuditRegistry": {
			"abi": [
				{
					"anonymous": false,
					"inputs": [
						{
							"indexed": true,
							"internalType": "uint256",
							"name": "index",
							"type": "uint256"
						},
						{
							"indexed": false,
							"internalType": "string",
							"name": "modelId",
							"type": "string"
						},
						{
							"indexed": false,
							"internalType": "uint256",
							"name": "timestamp",
							"type": "uint256"
						}
					],
					"name": "AuditLogged",
					"type": "event"
				},
				{
					"inputs": [
						{
							"internalType": "uint256",
							"name": "",
							"type": "uint256"
						}
					],
					"name": "audits",
					"outputs": [
						{
							"internalType": "string",
							"name": "modelId",
							"type": "string"
						},
						{
							"internalType": "string",
							"name": "ipfsCid",
							"type": "string"
						},
						{
							"internalType": "string",
							"name": "datasetHash",
							"type": "string"
						},
						{
							"internalType": "uint256",
							"name": "biasScore",
							"type": "uint256"
						},
						{
							"internalType": "uint256",
							"name": "timestamp",
							"type": "uint256"
						},
						{
							"internalType": "address",
							"name": "auditor",
							"type": "address"
						}
					],
					"stateMutability": "view",
					"type": "function"
				},
				{
					"inputs": [
						{
							"internalType": "uint256",
							"name": "_index",
							"type": "uint256"
						}
					],
					"name": "getAudit",
					"outputs": [
						{
							"components": [
								{
									"internalType": "string",
									"name": "modelId",
									"type": "string"
								},
								{
									"internalType": "string",
									"name": "ipfsCid",
									"type": "string"
								},
								{
									"internalType": "string",
									"name": "datasetHash",
									"type": "string"
								},
								{
									"internalType": "uint256",
									"name": "biasScore",
									"type": "uint256"
								},
								{
									"internalType": "uint256",
									"name": "timestamp",
									"type": "uint256"
								},
								{
									"internalType": "address",
									"name": "auditor",
									"type": "address"
								}
							],
							"internalType": "struct AuditRegistry.AuditRecord",
							"name": "",
							"type": "tuple"
						}
					],
					"stateMutability": "view",
					"type": "function"
				},
				{
					"inputs": [],
					"name": "getAuditCount",
					"outputs": [
						{
							"internalType": "uint256",
							"name": "",
							"type": "uint256"
						}
					],
					"stateMutability": "view",
					"type": "function"
				},
				{
					"inputs": [
						{
							"internalType": "string",
							"name": "_modelId",
							"type": "string"
						},
						{
							"internalType": "string",
							"name": "_ipfsCid",
							"type": "string"
						},
						{
							"internalType": "string",
							"name": "_datasetHash",
							"type": "string"
						},
						{
							"internalType": "uint256",
							"name": "_biasScore",
							"type": "uint256"
						}
					],
					"name": "logAudit",
					"outputs": [],
					"stateMutability": "nonpayable",
					"type": "function"
				}
			],
			"devdoc": {
				"kind": "dev",
				"methods": {},
				"version": 1
			},
			"evm": {
				"assembly": "    /* \"ai-audit-blockchain/AuditRegistry.sol\":57:1236  contract AuditRegistry {... */\n  mstore(0x40, 0x80)\n  callvalue\n  dup1\n  iszero\n  tag_1\n  jumpi\n  revert(0x00, 0x00)\ntag_1:\n  pop\n  dataSize(sub_0)\n  dup1\n  dataOffset(sub_0)\n  0x00\n  codecopy\n  0x00\n  return\nstop\n\nsub_0: assembly {\n        /* \"ai-audit-blockchain/AuditRegistry.sol\":57:1236  contract AuditRegistry {... */\n      mstore(0x40, 0x80)\n      callvalue\n      dup1\n      iszero\n      tag_1\n      jumpi\n      revert(0x00, 0x00)\n    tag_1:\n      pop\n      jumpi(tag_2, lt(calldatasize, 0x04))\n      shr(0xe0, calldataload(0x00))\n      dup1\n      0x16bcc755\n      eq\n      tag_3\n      jumpi\n      dup1\n      0x17bf37a3\n      eq\n      tag_4\n      jumpi\n      dup1\n      0x6353bde6\n      eq\n      tag_5\n      jumpi\n      dup1\n      0xb60e73db\n      eq\n      tag_6\n      jumpi\n    tag_2:\n      revert(0x00, 0x00)\n        /* \"ai-audit-blockchain/AuditRegistry.sol\":562:1017  function logAudit(string memory _modelId, string memory _ipfsCid, string memory _datasetHash, uint256 _biasScore) public {... */\n    tag_3:\n      tag_7\n      0x04\n      dup1\n      calldatasize\n      sub\n      dup2\n      add\n      swap1\n      tag_8\n      swap2\n      swap1\n      tag_9\n      jump\t// in\n    tag_8:\n      tag_10\n      jump\t// in\n    tag_7:\n      stop\n        /* \"ai-audit-blockchain/AuditRegistry.sol\":1121:1234  function getAudit(uint256 _index) public view returns (AuditRecord memory) {... */\n    tag_4:\n      tag_11\n      0x04\n      dup1\n      calldatasize\n      sub\n      dup2\n      add\n      swap1\n      tag_12\n      swap2\n      swap1\n      tag_13\n      jump\t// in\n    tag_12:\n      tag_14\n      jump\t// in\n    tag_11:\n      mload(0x40)\n      tag_15\n      swap2\n      swap1\n      tag_16\n      jump\t// in\n    tag_15:\n      mload(0x40)\n      dup1\n      swap2\n      sub\n      swap1\n      return\n        /* \"ai-audit-blockchain/AuditRegistry.sol\":1023:1115  function getAuditCount() public view returns (uint256) {... */\n    tag_5:\n      tag_17\n      tag_18\n      jump\t// in\n    tag_17:\n      mload(0x40)\n      tag_19\n      swap2\n      swap1\n      tag_20\n      jump\t// in\n    tag_19:\n      mload(0x40)\n      dup1\n      swap2\n      sub\n      swap1\n      return\n        /* \"ai-audit-blockchain/AuditRegistry.sol\":447:474  AuditRecord[] public audits */\n    tag_6:\n      tag_21\n      0x04\n      dup1\n      calldatasize\n      sub\n      dup2\n      add\n      swap1\n      tag_22\n      swap2\n      swap1\n      tag_13\n      jump\t// in\n    tag_22:\n      tag_23\n      jump\t// in\n    tag_21:\n      mload(0x40)\n      tag_24\n      swap7\n      swap6\n      swap5\n      swap4\n      swap3\n      swap2\n      swap1\n      tag_25\n      jump\t// in\n    tag_24:\n      mload(0x40)\n      dup1\n      swap2\n      sub\n      swap1\n      return\n        /* \"ai-audit-blockchain/AuditRegistry.sol\":562:1017  function logAudit(string memory _modelId, string memory _ipfsCid, string memory _datasetHash, uint256 _biasScore) public {... */\n    tag_10:\n        /* \"ai-audit-blockchain/AuditRegistry.sol\":693:699  audits */\n      0x00\n        /* \"ai-audit-blockchain/AuditRegistry.sol\":705:937  AuditRecord({... */\n      mload(0x40)\n      dup1\n      0xc0\n      add\n      0x40\n      mstore\n      dup1\n        /* \"ai-audit-blockchain/AuditRegistry.sol\":740:748  _modelId */\n      dup7\n        /* \"ai-audit-blockchain/AuditRegistry.sol\":705:937  AuditRecord({... */\n      dup2\n      mstore\n      0x20\n      add\n        /* \"ai-audit-blockchain/AuditRegistry.sol\":771:779  _ipfsCid */\n      dup6\n        /* \"ai-audit-blockchain/AuditRegistry.sol\":705:937  AuditRecord({... */\n      dup2\n      mstore\n      0x20\n      add\n        /* \"ai-audit-blockchain/AuditRegistry.sol\":806:818  _datasetHash */\n      dup5\n        /* \"ai-audit-blockchain/AuditRegistry.sol\":705:937  AuditRecord({... */\n      dup2\n      mstore\n      0x20\n      add\n        /* \"ai-audit-blockchain/AuditRegistry.sol\":843:853  _biasScore */\n      dup4\n        /* \"ai-audit-blockchain/AuditRegistry.sol\":705:937  AuditRecord({... */\n      dup2\n      mstore\n      0x20\n      add\n        /* \"ai-audit-blockchain/AuditRegistry.sol\":878:893  block.timestamp */\n      timestamp\n        /* \"ai-audit-blockchain/AuditRegistry.sol\":705:937  AuditRecord({... */\n      dup2\n      mstore\n      0x20\n      add\n        /* \"ai-audit-blockchain/AuditRegistry.sol\":916:926  msg.sender */\n      caller\n        /* \"ai-audit-blockchain/AuditRegistry.sol\":705:937  AuditRecord({... */\n      0xffffffffffffffffffffffffffffffffffffffff\n      and\n      dup2\n      mstore\n      pop\n        /* \"ai-audit-blockchain/AuditRegistry.sol\":693:938  audits.push(AuditRecord({... */\n      swap1\n      dup1\n      0x01\n      dup2\n      sload\n      add\n      dup1\n      dup3\n      sstore\n      dup1\n      swap2\n      pop\n      pop\n      0x01\n      swap1\n      sub\n      swap1\n      0x00\n      mstore\n      keccak256(0x00, 0x20)\n      swap1\n      0x06\n      mul\n      add\n      0x00\n      swap1\n      swap2\n      swap1\n      swap2\n      swap1\n      swap2\n      pop\n      0x00\n      dup3\n      add\n      mload\n      dup2\n      0x00\n      add\n      swap1\n      dup2\n      tag_28\n      swap2\n      swap1\n      tag_29\n      jump\t// in\n    tag_28:\n      pop\n      0x20\n      dup3\n      add\n      mload\n      dup2\n      0x01\n      add\n      swap1\n      dup2\n      tag_30\n      swap2\n      swap1\n      tag_29\n      jump\t// in\n    tag_30:\n      pop\n      0x40\n      dup3\n      add\n      mload\n      dup2\n      0x02\n      add\n      swap1\n      dup2\n      tag_31\n      swap2\n      swap1\n      tag_29\n      jump\t// in\n    tag_31:\n      pop\n      0x60\n      dup3\n      add\n      mload\n      dup2\n      0x03\n      add\n      sstore\n      0x80\n      dup3\n      add\n      mload\n      dup2\n      0x04\n      add\n      sstore\n      0xa0\n      dup3\n      add\n      mload\n      dup2\n      0x05\n      add\n      exp(0x0100, 0x00)\n      dup2\n      sload\n      dup2\n      0xffffffffffffffffffffffffffffffffffffffff\n      mul\n      not\n      and\n      swap1\n      dup4\n      0xffffffffffffffffffffffffffffffffffffffff\n      and\n      mul\n      or\n      swap1\n      sstore\n      pop\n      pop\n      pop\n        /* \"ai-audit-blockchain/AuditRegistry.sol\":981:982  1 */\n      0x01\n        /* \"ai-audit-blockchain/AuditRegistry.sol\":965:971  audits */\n      0x00\n        /* \"ai-audit-blockchain/AuditRegistry.sol\":965:978  audits.length */\n      dup1\n      sload\n      swap1\n      pop\n        /* \"ai-audit-blockchain/AuditRegistry.sol\":965:982  audits.length - 1 */\n      tag_32\n      swap2\n      swap1\n      tag_33\n      jump\t// in\n    tag_32:\n        /* \"ai-audit-blockchain/AuditRegistry.sol\":953:1010  AuditLogged(audits.length - 1, _modelId, block.timestamp) */\n      0x734b1336565be6bd6a148a740448f916d5e3727f6b15c341087e737a5f5cc3aa\n        /* \"ai-audit-blockchain/AuditRegistry.sol\":984:992  _modelId */\n      dup6\n        /* \"ai-audit-blockchain/AuditRegistry.sol\":994:1009  block.timestamp */\n      timestamp\n        /* \"ai-audit-blockchain/AuditRegistry.sol\":953:1010  AuditLogged(audits.length - 1, _modelId, block.timestamp) */\n      mload(0x40)\n      tag_34\n      swap3\n      swap2\n      swap1\n      tag_35\n      jump\t// in\n    tag_34:\n      mload(0x40)\n      dup1\n      swap2\n      sub\n      swap1\n      log2\n        /* \"ai-audit-blockchain/AuditRegistry.sol\":562:1017  function logAudit(string memory _modelId, string memory _ipfsCid, string memory _datasetHash, uint256 _biasScore) public {... */\n      pop\n      pop\n      pop\n      pop\n      jump\t// out\n        /* \"ai-audit-blockchain/AuditRegistry.sol\":1121:1234  function getAudit(uint256 _index) public view returns (AuditRecord memory) {... */\n    tag_14:\n        /* \"ai-audit-blockchain/AuditRegistry.sol\":1176:1194  AuditRecord memory */\n      tag_36\n      tag_37\n      jump\t// in\n    tag_36:\n        /* \"ai-audit-blockchain/AuditRegistry.sol\":1213:1219  audits */\n      0x00\n        /* \"ai-audit-blockchain/AuditRegistry.sol\":1220:1226  _index */\n      dup3\n        /* \"ai-audit-blockchain/AuditRegistry.sol\":1213:1227  audits[_index] */\n      dup2\n      sload\n      dup2\n      lt\n      tag_39\n      jumpi\n      tag_40\n      tag_41\n      jump\t// in\n    tag_40:\n    tag_39:\n      swap1\n      0x00\n      mstore\n      keccak256(0x00, 0x20)\n      swap1\n      0x06\n      mul\n      add\n        /* \"ai-audit-blockchain/AuditRegistry.sol\":1206:1227  return audits[_index] */\n      mload(0x40)\n      dup1\n      0xc0\n      add\n      0x40\n      mstore\n      swap1\n      dup2\n      0x00\n      dup3\n      add\n      dup1\n      sload\n      tag_43\n      swap1\n      tag_44\n      jump\t// in\n    tag_43:\n      dup1\n      0x1f\n      add\n      0x20\n      dup1\n      swap2\n      div\n      mul\n      0x20\n      add\n      mload(0x40)\n      swap1\n      dup2\n      add\n      0x40\n      mstore\n      dup1\n      swap3\n      swap2\n      swap1\n      dup2\n      dup2\n      mstore\n      0x20\n      add\n      dup3\n      dup1\n      sload\n      tag_45\n      swap1\n      tag_44\n      jump\t// in\n    tag_45:\n      dup1\n      iszero\n      tag_46\n      jumpi\n      dup1\n      0x1f\n      lt\n      tag_47\n      jumpi\n      0x0100\n      dup1\n      dup4\n      sload\n      div\n      mul\n      dup4\n      mstore\n      swap2\n      0x20\n      add\n      swap2\n      jump(tag_46)\n    tag_47:\n      dup3\n      add\n      swap2\n      swap1\n      0x00\n      mstore\n      keccak256(0x00, 0x20)\n      swap1\n    tag_48:\n      dup2\n      sload\n      dup2\n      mstore\n      swap1\n      0x01\n      add\n      swap1\n      0x20\n      add\n      dup1\n      dup4\n      gt\n      tag_48\n      jumpi\n      dup3\n      swap1\n      sub\n      0x1f\n      and\n      dup3\n      add\n      swap2\n    tag_46:\n      pop\n      pop\n      pop\n      pop\n      pop\n      dup2\n      mstore\n      0x20\n      add\n      0x01\n      dup3\n      add\n      dup1\n      sload\n      tag_49\n      swap1\n      tag_44\n      jump\t// in\n    tag_49:\n      dup1\n      0x1f\n      add\n      0x20\n      dup1\n      swap2\n      div\n      mul\n      0x20\n      add\n      mload(0x40)\n      swap1\n      dup2\n      add\n      0x40\n      mstore\n      dup1\n      swap3\n      swap2\n      swap1\n      dup2\n      dup2\n      mstore\n      0x20\n      add\n      dup3\n      dup1\n      sload\n      tag_50\n      swap1\n      tag_44\n      jump\t// in\n    tag_50:\n      dup1\n      iszero\n      tag_51\n      jumpi\n      dup1\n      0x1f\n      lt\n      tag_52\n      jumpi\n      0x0100\n      dup1\n      dup4\n      sload\n      div\n      mul\n      dup4\n      mstore\n      swap2\n      0x20\n      add\n      swap2\n      jump(tag_51)\n    tag_52:\n      dup3\n      add\n      swap2\n      swap1\n      0x00\n      mstore\n      keccak256(0x00, 0x20)\n      swap1\n    tag_53:\n      dup2\n      sload\n      dup2\n      mstore\n      swap1\n      0x01\n      add\n      swap1\n      0x20\n      add\n      dup1\n      dup4\n      gt\n      tag_53\n      jumpi\n      dup3\n      swap1\n      sub\n      0x1f\n      and\n      dup3\n      add\n      swap2\n    tag_51:\n      pop\n      pop\n      pop\n      pop\n      pop\n      dup2\n      mstore\n      0x20\n      add\n      0x02\n      dup3\n      add\n      dup1\n      sload\n      tag_54\n      swap1\n      tag_44\n      jump\t// in\n    tag_54:\n      dup1\n      0x1f\n      add\n      0x20\n      dup1\n      swap2\n      div\n      mul\n      0x20\n      add\n      mload(0x40)\n      swap1\n      dup2\n      add\n      0x40\n      mstore\n      dup1\n      swap3\n      swap2\n      swap1\n      dup2\n      dup2\n      mstore\n      0x20\n      add\n      dup3\n      dup1\n      sload\n      tag_55\n      swap1\n      tag_44\n      jump\t// in\n    tag_55:\n      dup1\n      iszero\n      tag_56\n      jumpi\n      dup1\n      0x1f\n      lt\n      tag_57\n      jumpi\n      0x0100\n      dup1\n      dup4\n      sload\n      div\n      mul\n      dup4\n      mstore\n      swap2\n      0x20\n      add\n      swap2\n      jump(tag_56)\n    tag_57:\n      dup3\n      add\n      swap2\n      swap1\n      0x00\n      mstore\n      keccak256(0x00, 0x20)\n      swap1\n    tag_58:\n      dup2\n      sload\n      dup2\n      mstore\n      swap1\n      0x01\n      add\n      swap1\n      0x20\n      add\n      dup1\n      dup4\n      gt\n      tag_58\n      jumpi\n      dup3\n      swap1\n      sub\n      0x1f\n      and\n      dup3\n      add\n      swap2\n    tag_56:\n      pop\n      pop\n      pop\n      pop\n      pop\n      dup2\n      mstore\n      0x20\n      add\n      0x03\n      dup3\n      add\n      sload\n      dup2\n      mstore\n      0x20\n      add\n      0x04\n      dup3\n      add\n      sload\n      dup2\n      mstore\n      0x20\n      add\n      0x05\n      dup3\n      add\n      0x00\n      swap1\n      sload\n      swap1\n      0x0100\n      exp\n      swap1\n      div\n      0xffffffffffffffffffffffffffffffffffffffff\n      and\n      0xffffffffffffffffffffffffffffffffffffffff\n      and\n      0xffffffffffffffffffffffffffffffffffffffff\n      and\n      dup2\n      mstore\n      pop\n      pop\n      swap1\n      pop\n        /* \"ai-audit-blockchain/AuditRegistry.sol\":1121:1234  function getAudit(uint256 _index) public view returns (AuditRecord memory) {... */\n      swap2\n      swap1\n      pop\n      jump\t// out\n        /* \"ai-audit-blockchain/AuditRegistry.sol\":1023:1115  function getAuditCount() public view returns (uint256) {... */\n    tag_18:\n        /* \"ai-audit-blockchain/AuditRegistry.sol\":1069:1076  uint256 */\n      0x00\n        /* \"ai-audit-blockchain/AuditRegistry.sol\":1095:1101  audits */\n      0x00\n        /* \"ai-audit-blockchain/AuditRegistry.sol\":1095:1108  audits.length */\n      dup1\n      sload\n      swap1\n      pop\n        /* \"ai-audit-blockchain/AuditRegistry.sol\":1088:1108  return audits.length */\n      swap1\n      pop\n        /* \"ai-audit-blockchain/AuditRegistry.sol\":1023:1115  function getAuditCount() public view returns (uint256) {... */\n      swap1\n      jump\t// out\n        /* \"ai-audit-blockchain/AuditRegistry.sol\":447:474  AuditRecord[] public audits */\n    tag_23:\n      0x00\n      dup2\n      dup2\n      sload\n      dup2\n      lt\n      tag_60\n      jumpi\n      0x00\n      dup1\n      revert\n    tag_60:\n      swap1\n      0x00\n      mstore\n      keccak256(0x00, 0x20)\n      swap1\n      0x06\n      mul\n      add\n      0x00\n      swap2\n      pop\n      swap1\n      pop\n      dup1\n      0x00\n      add\n      dup1\n      sload\n      tag_62\n      swap1\n      tag_44\n      jump\t// in\n    tag_62:\n      dup1\n      0x1f\n      add\n      0x20\n      dup1\n      swap2\n      div\n      mul\n      0x20\n      add\n      mload(0x40)\n      swap1\n      dup2\n      add\n      0x40\n      mstore\n      dup1\n      swap3\n      swap2\n      swap1\n      dup2\n      dup2\n      mstore\n      0x20\n      add\n      dup3\n      dup1\n      sload\n      tag_63\n      swap1\n      tag_44\n      jump\t// in\n    tag_63:\n      dup1\n      iszero\n      tag_64\n      jumpi\n      dup1\n      0x1f\n      lt\n      tag_65\n      jumpi\n      0x0100\n      dup1\n      dup4\n      sload\n      div\n      mul\n      dup4\n      mstore\n      swap2\n      0x20\n      add\n      swap2\n      jump(tag_64)\n    tag_65:\n      dup3\n      add\n      swap2\n      swap1\n      0x00\n      mstore\n      keccak256(0x00, 0x20)\n      swap1\n    tag_66:\n      dup2\n      sload\n      dup2\n      mstore\n      swap1\n      0x01\n      add\n      swap1\n      0x20\n      add\n      dup1\n      dup4\n      gt\n      tag_66\n      jumpi\n      dup3\n      swap1\n      sub\n      0x1f\n      and\n      dup3\n      add\n      swap2\n    tag_64:\n      pop\n      pop\n      pop\n      pop\n      pop\n      swap1\n      dup1\n      0x01\n      add\n      dup1\n      sload\n      tag_67\n      swap1\n      tag_44\n      jump\t// in\n    tag_67:\n      dup1\n      0x1f\n      add\n      0x20\n      dup1\n      swap2\n      div\n      mul\n      0x20\n      add\n      mload(0x40)\n      swap1\n      dup2\n      add\n      0x40\n      mstore\n      dup1\n      swap3\n      swap2\n      swap1\n      dup2\n      dup2\n      mstore\n      0x20\n      add\n      dup3\n      dup1\n      sload\n      tag_68\n      swap1\n      tag_44\n      jump\t// in\n    tag_68:\n      dup1\n      iszero\n      tag_69\n      jumpi\n      dup1\n      0x1f\n      lt\n      tag_70\n      jumpi\n      0x0100\n      dup1\n      dup4\n      sload\n      div\n      mul\n      dup4\n      mstore\n      swap2\n      0x20\n      add\n      swap2\n      jump(tag_69)\n    tag_70:\n      dup3\n      add\n      swap2\n      swap1\n      0x00\n      mstore\n      keccak256(0x00, 0x20)\n      swap1\n    tag_71:\n      dup2\n      sload\n      dup2\n      mstore\n      swap1\n      0x01\n      add\n      swap1\n      0x20\n      add\n      dup1\n      dup4\n      gt\n      tag_71\n      jumpi\n      dup3\n      swap1\n      sub\n      0x1f\n      and\n      dup3\n      add\n      swap2\n    tag_69:\n      pop\n      pop\n      pop\n      pop\n      pop\n      swap1\n      dup1\n      0x02\n      add\n      dup1\n      sload\n      tag_72\n      swap1\n      tag_44\n      jump\t// in\n    tag_72:\n      dup1\n      0x1f\n      add\n      0x20\n      dup1\n      swap2\n      div\n      mul\n      0x20\n      add\n      mload(0x40)\n      swap1\n      dup2\n      add\n      0x40\n      mstore\n      dup1\n      swap3\n      swap2\n      swap1\n      dup2\n      dup2\n      mstore\n      0x20\n      add\n      dup3\n      dup1\n      sload\n      tag_73\n      swap1\n      tag_44\n      jump\t// in\n    tag_73:\n      dup1\n      iszero\n      tag_74\n      jumpi\n      dup1\n      0x1f\n      lt\n      tag_75\n      jumpi\n      0x0100\n      dup1\n      dup4\n      sload\n      div\n      mul\n      dup4\n      mstore\n      swap2\n      0x20\n      add\n      swap2\n      jump(tag_74)\n    tag_75:\n      dup3\n      add\n      swap2\n      swap1\n      0x00\n      mstore\n      keccak256(0x00, 0x20)\n      swap1\n    tag_76:\n      dup2\n      sload\n      dup2\n      mstore\n      swap1\n      0x01\n      add\n      swap1\n      0x20\n      add\n      dup1\n      dup4\n      gt\n      tag_76\n      jumpi\n      dup3\n      swap1\n      sub\n      0x1f\n      and\n      dup3\n      add\n      swap2\n    tag_74:\n      pop\n      pop\n      pop\n      pop\n      pop\n      swap1\n      dup1\n      0x03\n      add\n      sload\n      swap1\n      dup1\n      0x04\n      add\n      sload\n      swap1\n      dup1\n      0x05\n      add\n      0x00\n      swap1\n      sload\n      swap1\n      0x0100\n      exp\n      swap1\n      div\n      0xffffffffffffffffffffffffffffffffffffffff\n      and\n      swap1\n      pop\n      dup7\n      jump\t// out\n    tag_37:\n      mload(0x40)\n      dup1\n      0xc0\n      add\n      0x40\n      mstore\n      dup1\n      0x60\n      dup2\n      mstore\n      0x20\n      add\n      0x60\n      dup2\n      mstore\n      0x20\n      add\n      0x60\n      dup2\n      mstore\n      0x20\n      add\n      0x00\n      dup2\n      mstore\n      0x20\n      add\n      0x00\n      dup2\n      mstore\n      0x20\n      add\n      and(0xffffffffffffffffffffffffffffffffffffffff, 0x00)\n      dup2\n      mstore\n      pop\n      swap1\n      jump\t// out\n        /* \"#utility.yul\":7:82   */\n    tag_77:\n        /* \"#utility.yul\":40:46   */\n      0x00\n        /* \"#utility.yul\":73:75   */\n      0x40\n        /* \"#utility.yul\":67:76   */\n      mload\n        /* \"#utility.yul\":57:76   */\n      swap1\n      pop\n        /* \"#utility.yul\":7:82   */\n      swap1\n      jump\t// out\n        /* \"#utility.yul\":88:205   */\n    tag_78:\n        /* \"#utility.yul\":197:198   */\n      0x00\n        /* \"#utility.yul\":194:195   */\n      0x00\n        /* \"#utility.yul\":187:199   */\n      revert\n        /* \"#utility.yul\":211:328   */\n    tag_79:\n        /* \"#utility.yul\":320:321   */\n      0x00\n        /* \"#utility.yul\":317:318   */\n      0x00\n        /* \"#utility.yul\":310:322   */\n      revert\n        /* \"#utility.yul\":334:451   */\n    tag_80:\n        /* \"#utility.yul\":443:444   */\n      0x00\n        /* \"#utility.yul\":440:441   */\n      0x00\n        /* \"#utility.yul\":433:445   */\n      revert\n        /* \"#utility.yul\":457:574   */\n    tag_81:\n        /* \"#utility.yul\":566:567   */\n      0x00\n        /* \"#utility.yul\":563:564   */\n      0x00\n        /* \"#utility.yul\":556:568   */\n      revert\n        /* \"#utility.yul\":580:682   */\n    tag_82:\n        /* \"#utility.yul\":621:627   */\n      0x00\n        /* \"#utility.yul\":672:674   */\n      0x1f\n        /* \"#utility.yul\":668:675   */\n      not\n        /* \"#utility.yul\":663:665   */\n      0x1f\n        /* \"#utility.yul\":656:661   */\n      dup4\n        /* \"#utility.yul\":652:666   */\n      add\n        /* \"#utility.yul\":648:676   */\n      and\n        /* \"#utility.yul\":638:676   */\n      swap1\n      pop\n        /* \"#utility.yul\":580:682   */\n      swap2\n      swap1\n      pop\n      jump\t// out\n        /* \"#utility.yul\":688:868   */\n    tag_83:\n        /* \"#utility.yul\":736:813   */\n      0x4e487b7100000000000000000000000000000000000000000000000000000000\n        /* \"#utility.yul\":733:734   */\n      0x00\n        /* \"#utility.yul\":726:814   */\n      mstore\n        /* \"#utility.yul\":833:837   */\n      0x41\n        /* \"#utility.yul\":830:831   */\n      0x04\n        /* \"#utility.yul\":823:838   */\n      mstore\n        /* \"#utility.yul\":857:861   */\n      0x24\n        /* \"#utility.yul\":854:855   */\n      0x00\n        /* \"#utility.yul\":847:862   */\n      revert\n        /* \"#utility.yul\":874:1155   */\n    tag_84:\n        /* \"#utility.yul\":957:984   */\n      tag_132\n        /* \"#utility.yul\":979:983   */\n      dup3\n        /* \"#utility.yul\":957:984   */\n      tag_82\n      jump\t// in\n    tag_132:\n        /* \"#utility.yul\":949:955   */\n      dup2\n        /* \"#utility.yul\":945:985   */\n      add\n        /* \"#utility.yul\":1087:1093   */\n      dup2\n        /* \"#utility.yul\":1075:1085   */\n      dup2\n        /* \"#utility.yul\":1072:1094   */\n      lt\n        /* \"#utility.yul\":1051:1069   */\n      0xffffffffffffffff\n        /* \"#utility.yul\":1039:1049   */\n      dup3\n        /* \"#utility.yul\":1036:1070   */\n      gt\n        /* \"#utility.yul\":1033:1095   */\n      or\n        /* \"#utility.yul\":1030:1118   */\n      iszero\n      tag_133\n      jumpi\n        /* \"#utility.yul\":1098:1116   */\n      tag_134\n      tag_83\n      jump\t// in\n    tag_134:\n        /* \"#utility.yul\":1030:1118   */\n    tag_133:\n        /* \"#utility.yul\":1138:1148   */\n      dup1\n        /* \"#utility.yul\":1134:1136   */\n      0x40\n        /* \"#utility.yul\":1127:1149   */\n      mstore\n        /* \"#utility.yul\":917:1155   */\n      pop\n        /* \"#utility.yul\":874:1155   */\n      pop\n      pop\n      jump\t// out\n        /* \"#utility.yul\":1161:1290   */\n    tag_85:\n        /* \"#utility.yul\":1195:1201   */\n      0x00\n        /* \"#utility.yul\":1222:1242   */\n      tag_136\n      tag_77\n      jump\t// in\n    tag_136:\n        /* \"#utility.yul\":1212:1242   */\n      swap1\n      pop\n        /* \"#utility.yul\":1251:1284   */\n      tag_137\n        /* \"#utility.yul\":1279:1283   */\n      dup3\n        /* \"#utility.yul\":1271:1277   */\n      dup3\n        /* \"#utility.yul\":1251:1284   */\n      tag_84\n      jump\t// in\n    tag_137:\n        /* \"#utility.yul\":1161:1290   */\n      swap2\n      swap1\n      pop\n      jump\t// out\n        /* \"#utility.yul\":1296:1604   */\n    tag_86:\n        /* \"#utility.yul\":1358:1362   */\n      0x00\n        /* \"#utility.yul\":1448:1466   */\n      0xffffffffffffffff\n        /* \"#utility.yul\":1440:1446   */\n      dup3\n        /* \"#utility.yul\":1437:1467   */\n      gt\n        /* \"#utility.yul\":1434:1490   */\n      iszero\n      tag_139\n      jumpi\n        /* \"#utility.yul\":1470:1488   */\n      tag_140\n      tag_83\n      jump\t// in\n    tag_140:\n        /* \"#utility.yul\":1434:1490   */\n    tag_139:\n        /* \"#utility.yul\":1508:1537   */\n      tag_141\n        /* \"#utility.yul\":1530:1536   */\n      dup3\n        /* \"#utility.yul\":1508:1537   */\n      tag_82\n      jump\t// in\n    tag_141:\n        /* \"#utility.yul\":1500:1537   */\n      swap1\n      pop\n        /* \"#utility.yul\":1592:1596   */\n      0x20\n        /* \"#utility.yul\":1586:1590   */\n      dup2\n        /* \"#utility.yul\":1582:1597   */\n      add\n        /* \"#utility.yul\":1574:1597   */\n      swap1\n      pop\n        /* \"#utility.yul\":1296:1604   */\n      swap2\n      swap1\n      pop\n      jump\t// out\n        /* \"#utility.yul\":1610:1758   */\n    tag_87:\n        /* \"#utility.yul\":1708:1714   */\n      dup3\n        /* \"#utility.yul\":1703:1706   */\n      dup2\n        /* \"#utility.yul\":1698:1701   */\n      dup4\n        /* \"#utility.yul\":1685:1715   */\n      calldatacopy\n        /* \"#utility.yul\":1749:1750   */\n      0x00\n        /* \"#utility.yul\":1740:1746   */\n      dup4\n        /* \"#utility.yul\":1735:1738   */\n      dup4\n        /* \"#utility.yul\":1731:1747   */\n      add\n        /* \"#utility.yul\":1724:1751   */\n      mstore\n        /* \"#utility.yul\":1610:1758   */\n      pop\n      pop\n      pop\n      jump\t// out\n        /* \"#utility.yul\":1764:2189   */\n    tag_88:\n        /* \"#utility.yul\":1842:1847   */\n      0x00\n        /* \"#utility.yul\":1867:1933   */\n      tag_144\n        /* \"#utility.yul\":1883:1932   */\n      tag_145\n        /* \"#utility.yul\":1925:1931   */\n      dup5\n        /* \"#utility.yul\":1883:1932   */\n      tag_86\n      jump\t// in\n    tag_145:\n        /* \"#utility.yul\":1867:1933   */\n      tag_85\n      jump\t// in\n    tag_144:\n        /* \"#utility.yul\":1858:1933   */\n      swap1\n      pop\n        /* \"#utility.yul\":1956:1962   */\n      dup3\n        /* \"#utility.yul\":1949:1954   */\n      dup2\n        /* \"#utility.yul\":1942:1963   */\n      mstore\n        /* \"#utility.yul\":1994:1998   */\n      0x20\n        /* \"#utility.yul\":1987:1992   */\n      dup2\n        /* \"#utility.yul\":1983:1999   */\n      add\n        /* \"#utility.yul\":2032:2035   */\n      dup5\n        /* \"#utility.yul\":2023:2029   */\n      dup5\n        /* \"#utility.yul\":2018:2021   */\n      dup5\n        /* \"#utility.yul\":2014:2030   */\n      add\n        /* \"#utility.yul\":2011:2036   */\n      gt\n        /* \"#utility.yul\":2008:2120   */\n      iszero\n      tag_146\n      jumpi\n        /* \"#utility.yul\":2039:2118   */\n      tag_147\n      tag_81\n      jump\t// in\n    tag_147:\n        /* \"#utility.yul\":2008:2120   */\n    tag_146:\n        /* \"#utility.yul\":2129:2183   */\n      tag_148\n        /* \"#utility.yul\":2176:2182   */\n      dup5\n        /* \"#utility.yul\":2171:2174   */\n      dup3\n        /* \"#utility.yul\":2166:2169   */\n      dup6\n        /* \"#utility.yul\":2129:2183   */\n      tag_87\n      jump\t// in\n    tag_148:\n        /* \"#utility.yul\":1848:2189   */\n      pop\n        /* \"#utility.yul\":1764:2189   */\n      swap4\n      swap3\n      pop\n      pop\n      pop\n      jump\t// out\n        /* \"#utility.yul\":2209:2549   */\n    tag_89:\n        /* \"#utility.yul\":2265:2270   */\n      0x00\n        /* \"#utility.yul\":2314:2317   */\n      dup3\n        /* \"#utility.yul\":2307:2311   */\n      0x1f\n        /* \"#utility.yul\":2299:2305   */\n      dup4\n        /* \"#utility.yul\":2295:2312   */\n      add\n        /* \"#utility.yul\":2291:2318   */\n      slt\n        /* \"#utility.yul\":2281:2403   */\n      tag_150\n      jumpi\n        /* \"#utility.yul\":2322:2401   */\n      tag_151\n      tag_80\n      jump\t// in\n    tag_151:\n        /* \"#utility.yul\":2281:2403   */\n    tag_150:\n        /* \"#utility.yul\":2439:2445   */\n      dup2\n        /* \"#utility.yul\":2426:2446   */\n      calldataload\n        /* \"#utility.yul\":2464:2543   */\n      tag_152\n        /* \"#utility.yul\":2539:2542   */\n      dup5\n        /* \"#utility.yul\":2531:2537   */\n      dup3\n        /* \"#utility.yul\":2524:2528   */\n      0x20\n        /* \"#utility.yul\":2516:2522   */\n      dup7\n        /* \"#utility.yul\":2512:2529   */\n      add\n        /* \"#utility.yul\":2464:2543   */\n      tag_88\n      jump\t// in\n    tag_152:\n        /* \"#utility.yul\":2455:2543   */\n      swap2\n      pop\n        /* \"#utility.yul\":2271:2549   */\n      pop\n        /* \"#utility.yul\":2209:2549   */\n      swap3\n      swap2\n      pop\n      pop\n      jump\t// out\n        /* \"#utility.yul\":2555:2632   */\n    tag_90:\n        /* \"#utility.yul\":2592:2599   */\n      0x00\n        /* \"#utility.yul\":2621:2626   */\n      dup2\n        /* \"#utility.yul\":2610:2626   */\n      swap1\n      pop\n        /* \"#utility.yul\":2555:2632   */\n      swap2\n      swap1\n      pop\n      jump\t// out\n        /* \"#utility.yul\":2638:2760   */\n    tag_91:\n        /* \"#utility.yul\":2711:2735   */\n      tag_155\n        /* \"#utility.yul\":2729:2734   */\n      dup2\n        /* \"#utility.yul\":2711:2735   */\n      tag_90\n      jump\t// in\n    tag_155:\n        /* \"#utility.yul\":2704:2709   */\n      dup2\n        /* \"#utility.yul\":2701:2736   */\n      eq\n        /* \"#utility.yul\":2691:2754   */\n      tag_156\n      jumpi\n        /* \"#utility.yul\":2750:2751   */\n      0x00\n        /* \"#utility.yul\":2747:2748   */\n      0x00\n        /* \"#utility.yul\":2740:2752   */\n      revert\n        /* \"#utility.yul\":2691:2754   */\n    tag_156:\n        /* \"#utility.yul\":2638:2760   */\n      pop\n      jump\t// out\n        /* \"#utility.yul\":2766:2905   */\n    tag_92:\n        /* \"#utility.yul\":2812:2817   */\n      0x00\n        /* \"#utility.yul\":2850:2856   */\n      dup2\n        /* \"#utility.yul\":2837:2857   */\n      calldataload\n        /* \"#utility.yul\":2828:2857   */\n      swap1\n      pop\n        /* \"#utility.yul\":2866:2899   */\n      tag_158\n        /* \"#utility.yul\":2893:2898   */\n      dup2\n        /* \"#utility.yul\":2866:2899   */\n      tag_91\n      jump\t// in\n    tag_158:\n        /* \"#utility.yul\":2766:2905   */\n      swap3\n      swap2\n      pop\n      pop\n      jump\t// out\n        /* \"#utility.yul\":2911:4216   */\n    tag_9:\n        /* \"#utility.yul\":3027:3033   */\n      0x00\n        /* \"#utility.yul\":3035:3041   */\n      0x00\n        /* \"#utility.yul\":3043:3049   */\n      0x00\n        /* \"#utility.yul\":3051:3057   */\n      0x00\n        /* \"#utility.yul\":3100:3103   */\n      0x80\n        /* \"#utility.yul\":3088:3097   */\n      dup6\n        /* \"#utility.yul\":3079:3086   */\n      dup8\n        /* \"#utility.yul\":3075:3098   */\n      sub\n        /* \"#utility.yul\":3071:3104   */\n      slt\n        /* \"#utility.yul\":3068:3188   */\n      iszero\n      tag_160\n      jumpi\n        /* \"#utility.yul\":3107:3186   */\n      tag_161\n      tag_78\n      jump\t// in\n    tag_161:\n        /* \"#utility.yul\":3068:3188   */\n    tag_160:\n        /* \"#utility.yul\":3255:3256   */\n      0x00\n        /* \"#utility.yul\":3244:3253   */\n      dup6\n        /* \"#utility.yul\":3240:3257   */\n      add\n        /* \"#utility.yul\":3227:3258   */\n      calldataload\n        /* \"#utility.yul\":3285:3303   */\n      0xffffffffffffffff\n        /* \"#utility.yul\":3277:3283   */\n      dup2\n        /* \"#utility.yul\":3274:3304   */\n      gt\n        /* \"#utility.yul\":3271:3388   */\n      iszero\n      tag_162\n      jumpi\n        /* \"#utility.yul\":3307:3386   */\n      tag_163\n      tag_79\n      jump\t// in\n    tag_163:\n        /* \"#utility.yul\":3271:3388   */\n    tag_162:\n        /* \"#utility.yul\":3412:3475   */\n      tag_164\n        /* \"#utility.yul\":3467:3474   */\n      dup8\n        /* \"#utility.yul\":3458:3464   */\n      dup3\n        /* \"#utility.yul\":3447:3456   */\n      dup9\n        /* \"#utility.yul\":3443:3465   */\n      add\n        /* \"#utility.yul\":3412:3475   */\n      tag_89\n      jump\t// in\n    tag_164:\n        /* \"#utility.yul\":3402:3475   */\n      swap5\n      pop\n        /* \"#utility.yul\":3198:3485   */\n      pop\n        /* \"#utility.yul\":3552:3554   */\n      0x20\n        /* \"#utility.yul\":3541:3550   */\n      dup6\n        /* \"#utility.yul\":3537:3555   */\n      add\n        /* \"#utility.yul\":3524:3556   */\n      calldataload\n        /* \"#utility.yul\":3583:3601   */\n      0xffffffffffffffff\n        /* \"#utility.yul\":3575:3581   */\n      dup2\n        /* \"#utility.yul\":3572:3602   */\n      gt\n        /* \"#utility.yul\":3569:3686   */\n      iszero\n      tag_165\n      jumpi\n        /* \"#utility.yul\":3605:3684   */\n      tag_166\n      tag_79\n      jump\t// in\n    tag_166:\n        /* \"#utility.yul\":3569:3686   */\n    tag_165:\n        /* \"#utility.yul\":3710:3773   */\n      tag_167\n        /* \"#utility.yul\":3765:3772   */\n      dup8\n        /* \"#utility.yul\":3756:3762   */\n      dup3\n        /* \"#utility.yul\":3745:3754   */\n      dup9\n        /* \"#utility.yul\":3741:3763   */\n      add\n        /* \"#utility.yul\":3710:3773   */\n      tag_89\n      jump\t// in\n    tag_167:\n        /* \"#utility.yul\":3700:3773   */\n      swap4\n      pop\n        /* \"#utility.yul\":3495:3783   */\n      pop\n        /* \"#utility.yul\":3850:3852   */\n      0x40\n        /* \"#utility.yul\":3839:3848   */\n      dup6\n        /* \"#utility.yul\":3835:3853   */\n      add\n        /* \"#utility.yul\":3822:3854   */\n      calldataload\n        /* \"#utility.yul\":3881:3899   */\n      0xffffffffffffffff\n        /* \"#utility.yul\":3873:3879   */\n      dup2\n        /* \"#utility.yul\":3870:3900   */\n      gt\n        /* \"#utility.yul\":3867:3984   */\n      iszero\n      tag_168\n      jumpi\n        /* \"#utility.yul\":3903:3982   */\n      tag_169\n      tag_79\n      jump\t// in\n    tag_169:\n        /* \"#utility.yul\":3867:3984   */\n    tag_168:\n        /* \"#utility.yul\":4008:4071   */\n      tag_170\n        /* \"#utility.yul\":4063:4070   */\n      dup8\n        /* \"#utility.yul\":4054:4060   */\n      dup3\n        /* \"#utility.yul\":4043:4052   */\n      dup9\n        /* \"#utility.yul\":4039:4061   */\n      add\n        /* \"#utility.yul\":4008:4071   */\n      tag_89\n      jump\t// in\n    tag_170:\n        /* \"#utility.yul\":3998:4071   */\n      swap3\n      pop\n        /* \"#utility.yul\":3793:4081   */\n      pop\n        /* \"#utility.yul\":4120:4122   */\n      0x60\n        /* \"#utility.yul\":4146:4199   */\n      tag_171\n        /* \"#utility.yul\":4191:4198   */\n      dup8\n        /* \"#utility.yul\":4182:4188   */\n      dup3\n        /* \"#utility.yul\":4171:4180   */\n      dup9\n        /* \"#utility.yul\":4167:4189   */\n      add\n        /* \"#utility.yul\":4146:4199   */\n      tag_92\n      jump\t// in\n    tag_171:\n        /* \"#utility.yul\":4136:4199   */\n      swap2\n      pop\n        /* \"#utility.yul\":4091:4209   */\n      pop\n        /* \"#utility.yul\":2911:4216   */\n      swap3\n      swap6\n      swap2\n      swap5\n      pop\n      swap3\n      pop\n      jump\t// out\n        /* \"#utility.yul\":4222:4551   */\n    tag_13:\n        /* \"#utility.yul\":4281:4287   */\n      0x00\n        /* \"#utility.yul\":4330:4332   */\n      0x20\n        /* \"#utility.yul\":4318:4327   */\n      dup3\n        /* \"#utility.yul\":4309:4316   */\n      dup5\n        /* \"#utility.yul\":4305:4328   */\n      sub\n        /* \"#utility.yul\":4301:4333   */\n      slt\n        /* \"#utility.yul\":4298:4417   */\n      iszero\n      tag_173\n      jumpi\n        /* \"#utility.yul\":4336:4415   */\n      tag_174\n      tag_78\n      jump\t// in\n    tag_174:\n        /* \"#utility.yul\":4298:4417   */\n    tag_173:\n        /* \"#utility.yul\":4456:4457   */\n      0x00\n        /* \"#utility.yul\":4481:4534   */\n      tag_175\n        /* \"#utility.yul\":4526:4533   */\n      dup5\n        /* \"#utility.yul\":4517:4523   */\n      dup3\n        /* \"#utility.yul\":4506:4515   */\n      dup6\n        /* \"#utility.yul\":4502:4524   */\n      add\n        /* \"#utility.yul\":4481:4534   */\n      tag_92\n      jump\t// in\n    tag_175:\n        /* \"#utility.yul\":4471:4534   */\n      swap2\n      pop\n        /* \"#utility.yul\":4427:4544   */\n      pop\n        /* \"#utility.yul\":4222:4551   */\n      swap3\n      swap2\n      pop\n      pop\n      jump\t// out\n        /* \"#utility.yul\":4557:4656   */\n    tag_93:\n        /* \"#utility.yul\":4609:4615   */\n      0x00\n        /* \"#utility.yul\":4643:4648   */\n      dup2\n        /* \"#utility.yul\":4637:4649   */\n      mload\n        /* \"#utility.yul\":4627:4649   */\n      swap1\n      pop\n        /* \"#utility.yul\":4557:4656   */\n      swap2\n      swap1\n      pop\n      jump\t// out\n        /* \"#utility.yul\":4662:4821   */\n    tag_94:\n        /* \"#utility.yul\":4736:4747   */\n      0x00\n        /* \"#utility.yul\":4770:4776   */\n      dup3\n        /* \"#utility.yul\":4765:4768   */\n      dup3\n        /* \"#utility.yul\":4758:4777   */\n      mstore\n        /* \"#utility.yul\":4810:4814   */\n      0x20\n        /* \"#utility.yul\":4805:4808   */\n      dup3\n        /* \"#utility.yul\":4801:4815   */\n      add\n        /* \"#utility.yul\":4786:4815   */\n      swap1\n      pop\n        /* \"#utility.yul\":4662:4821   */\n      swap3\n      swap2\n      pop\n      pop\n      jump\t// out\n        /* \"#utility.yul\":4827:4966   */\n    tag_95:\n        /* \"#utility.yul\":4916:4922   */\n      dup3\n        /* \"#utility.yul\":4911:4914   */\n      dup2\n        /* \"#utility.yul\":4906:4909   */\n      dup4\n        /* \"#utility.yul\":4900:4923   */\n      mcopy\n        /* \"#utility.yul\":4957:4958   */\n      0x00\n        /* \"#utility.yul\":4948:4954   */\n      dup4\n        /* \"#utility.yul\":4943:4946   */\n      dup4\n        /* \"#utility.yul\":4939:4955   */\n      add\n        /* \"#utility.yul\":4932:4959   */\n      mstore\n        /* \"#utility.yul\":4827:4966   */\n      pop\n      pop\n      pop\n      jump\t// out\n        /* \"#utility.yul\":4972:5329   */\n    tag_96:\n        /* \"#utility.yul\":5050:5053   */\n      0x00\n        /* \"#utility.yul\":5078:5117   */\n      tag_180\n        /* \"#utility.yul\":5111:5116   */\n      dup3\n        /* \"#utility.yul\":5078:5117   */\n      tag_93\n      jump\t// in\n    tag_180:\n        /* \"#utility.yul\":5133:5194   */\n      tag_181\n        /* \"#utility.yul\":5187:5193   */\n      dup2\n        /* \"#utility.yul\":5182:5185   */\n      dup6\n        /* \"#utility.yul\":5133:5194   */\n      tag_94\n      jump\t// in\n    tag_181:\n        /* \"#utility.yul\":5126:5194   */\n      swap4\n      pop\n        /* \"#utility.yul\":5203:5268   */\n      tag_182\n        /* \"#utility.yul\":5261:5267   */\n      dup2\n        /* \"#utility.yul\":5256:5259   */\n      dup6\n        /* \"#utility.yul\":5249:5253   */\n      0x20\n        /* \"#utility.yul\":5242:5247   */\n      dup7\n        /* \"#utility.yul\":5238:5254   */\n      add\n        /* \"#utility.yul\":5203:5268   */\n      tag_95\n      jump\t// in\n    tag_182:\n        /* \"#utility.yul\":5293:5322   */\n      tag_183\n        /* \"#utility.yul\":5315:5321   */\n      dup2\n        /* \"#utility.yul\":5293:5322   */\n      tag_82\n      jump\t// in\n    tag_183:\n        /* \"#utility.yul\":5288:5291   */\n      dup5\n        /* \"#utility.yul\":5284:5323   */\n      add\n        /* \"#utility.yul\":5277:5323   */\n      swap2\n      pop\n        /* \"#utility.yul\":5054:5329   */\n      pop\n        /* \"#utility.yul\":4972:5329   */\n      swap3\n      swap2\n      pop\n      pop\n      jump\t// out\n        /* \"#utility.yul\":5335:5443   */\n    tag_97:\n        /* \"#utility.yul\":5412:5436   */\n      tag_185\n        /* \"#utility.yul\":5430:5435   */\n      dup2\n        /* \"#utility.yul\":5412:5436   */\n      tag_90\n      jump\t// in\n    tag_185:\n        /* \"#utility.yul\":5407:5410   */\n      dup3\n        /* \"#utility.yul\":5400:5437   */\n      mstore\n        /* \"#utility.yul\":5335:5443   */\n      pop\n      pop\n      jump\t// out\n        /* \"#utility.yul\":5449:5575   */\n    tag_98:\n        /* \"#utility.yul\":5486:5493   */\n      0x00\n        /* \"#utility.yul\":5526:5568   */\n      0xffffffffffffffffffffffffffffffffffffffff\n        /* \"#utility.yul\":5519:5524   */\n      dup3\n        /* \"#utility.yul\":5515:5569   */\n      and\n        /* \"#utility.yul\":5504:5569   */\n      swap1\n      pop\n        /* \"#utility.yul\":5449:5575   */\n      swap2\n      swap1\n      pop\n      jump\t// out\n        /* \"#utility.yul\":5581:5677   */\n    tag_99:\n        /* \"#utility.yul\":5618:5625   */\n      0x00\n        /* \"#utility.yul\":5647:5671   */\n      tag_188\n        /* \"#utility.yul\":5665:5670   */\n      dup3\n        /* \"#utility.yul\":5647:5671   */\n      tag_98\n      jump\t// in\n    tag_188:\n        /* \"#utility.yul\":5636:5671   */\n      swap1\n      pop\n        /* \"#utility.yul\":5581:5677   */\n      swap2\n      swap1\n      pop\n      jump\t// out\n        /* \"#utility.yul\":5683:5791   */\n    tag_100:\n        /* \"#utility.yul\":5760:5784   */\n      tag_190\n        /* \"#utility.yul\":5778:5783   */\n      dup2\n        /* \"#utility.yul\":5760:5784   */\n      tag_99\n      jump\t// in\n    tag_190:\n        /* \"#utility.yul\":5755:5758   */\n      dup3\n        /* \"#utility.yul\":5748:5785   */\n      mstore\n        /* \"#utility.yul\":5683:5791   */\n      pop\n      pop\n      jump\t// out\n        /* \"#utility.yul\":5873:7347   */\n    tag_101:\n        /* \"#utility.yul\":5996:5999   */\n      0x00\n        /* \"#utility.yul\":6032:6036   */\n      0xc0\n        /* \"#utility.yul\":6027:6030   */\n      dup4\n        /* \"#utility.yul\":6023:6037   */\n      add\n        /* \"#utility.yul\":6122:6126   */\n      0x00\n        /* \"#utility.yul\":6115:6120   */\n      dup4\n        /* \"#utility.yul\":6111:6127   */\n      add\n        /* \"#utility.yul\":6105:6128   */\n      mload\n        /* \"#utility.yul\":6175:6178   */\n      dup5\n        /* \"#utility.yul\":6169:6173   */\n      dup3\n        /* \"#utility.yul\":6165:6179   */\n      sub\n        /* \"#utility.yul\":6158:6162   */\n      0x00\n        /* \"#utility.yul\":6153:6156   */\n      dup7\n        /* \"#utility.yul\":6149:6163   */\n      add\n        /* \"#utility.yul\":6142:6180   */\n      mstore\n        /* \"#utility.yul\":6201:6274   */\n      tag_192\n        /* \"#utility.yul\":6269:6273   */\n      dup3\n        /* \"#utility.yul\":6255:6267   */\n      dup3\n        /* \"#utility.yul\":6201:6274   */\n      tag_96\n      jump\t// in\n    tag_192:\n        /* \"#utility.yul\":6193:6274   */\n      swap2\n      pop\n        /* \"#utility.yul\":6047:6285   */\n      pop\n        /* \"#utility.yul\":6370:6374   */\n      0x20\n        /* \"#utility.yul\":6363:6368   */\n      dup4\n        /* \"#utility.yul\":6359:6375   */\n      add\n        /* \"#utility.yul\":6353:6376   */\n      mload\n        /* \"#utility.yul\":6423:6426   */\n      dup5\n        /* \"#utility.yul\":6417:6421   */\n      dup3\n        /* \"#utility.yul\":6413:6427   */\n      sub\n        /* \"#utility.yul\":6406:6410   */\n      0x20\n        /* \"#utility.yul\":6401:6404   */\n      dup7\n        /* \"#utility.yul\":6397:6411   */\n      add\n        /* \"#utility.yul\":6390:6428   */\n      mstore\n        /* \"#utility.yul\":6449:6522   */\n      tag_193\n        /* \"#utility.yul\":6517:6521   */\n      dup3\n        /* \"#utility.yul\":6503:6515   */\n      dup3\n        /* \"#utility.yul\":6449:6522   */\n      tag_96\n      jump\t// in\n    tag_193:\n        /* \"#utility.yul\":6441:6522   */\n      swap2\n      pop\n        /* \"#utility.yul\":6295:6533   */\n      pop\n        /* \"#utility.yul\":6622:6626   */\n      0x40\n        /* \"#utility.yul\":6615:6620   */\n      dup4\n        /* \"#utility.yul\":6611:6627   */\n      add\n        /* \"#utility.yul\":6605:6628   */\n      mload\n        /* \"#utility.yul\":6675:6678   */\n      dup5\n        /* \"#utility.yul\":6669:6673   */\n      dup3\n        /* \"#utility.yul\":6665:6679   */\n      sub\n        /* \"#utility.yul\":6658:6662   */\n      0x40\n        /* \"#utility.yul\":6653:6656   */\n      dup7\n        /* \"#utility.yul\":6649:6663   */\n      add\n        /* \"#utility.yul\":6642:6680   */\n      mstore\n        /* \"#utility.yul\":6701:6774   */\n      tag_194\n        /* \"#utility.yul\":6769:6773   */\n      dup3\n        /* \"#utility.yul\":6755:6767   */\n      dup3\n        /* \"#utility.yul\":6701:6774   */\n      tag_96\n      jump\t// in\n    tag_194:\n        /* \"#utility.yul\":6693:6774   */\n      swap2\n      pop\n        /* \"#utility.yul\":6543:6785   */\n      pop\n        /* \"#utility.yul\":6872:6876   */\n      0x60\n        /* \"#utility.yul\":6865:6870   */\n      dup4\n        /* \"#utility.yul\":6861:6877   */\n      add\n        /* \"#utility.yul\":6855:6878   */\n      mload\n        /* \"#utility.yul\":6891:6954   */\n      tag_195\n        /* \"#utility.yul\":6948:6952   */\n      0x60\n        /* \"#utility.yul\":6943:6946   */\n      dup7\n        /* \"#utility.yul\":6939:6953   */\n      add\n        /* \"#utility.yul\":6925:6937   */\n      dup3\n        /* \"#utility.yul\":6891:6954   */\n      tag_97\n      jump\t// in\n    tag_195:\n        /* \"#utility.yul\":6795:6964   */\n      pop\n        /* \"#utility.yul\":7051:7055   */\n      0x80\n        /* \"#utility.yul\":7044:7049   */\n      dup4\n        /* \"#utility.yul\":7040:7056   */\n      add\n        /* \"#utility.yul\":7034:7057   */\n      mload\n        /* \"#utility.yul\":7070:7133   */\n      tag_196\n        /* \"#utility.yul\":7127:7131   */\n      0x80\n        /* \"#utility.yul\":7122:7125   */\n      dup7\n        /* \"#utility.yul\":7118:7132   */\n      add\n        /* \"#utility.yul\":7104:7116   */\n      dup3\n        /* \"#utility.yul\":7070:7133   */\n      tag_97\n      jump\t// in\n    tag_196:\n        /* \"#utility.yul\":6974:7143   */\n      pop\n        /* \"#utility.yul\":7228:7232   */\n      0xa0\n        /* \"#utility.yul\":7221:7226   */\n      dup4\n        /* \"#utility.yul\":7217:7233   */\n      add\n        /* \"#utility.yul\":7211:7234   */\n      mload\n        /* \"#utility.yul\":7247:7310   */\n      tag_197\n        /* \"#utility.yul\":7304:7308   */\n      0xa0\n        /* \"#utility.yul\":7299:7302   */\n      dup7\n        /* \"#utility.yul\":7295:7309   */\n      add\n        /* \"#utility.yul\":7281:7293   */\n      dup3\n        /* \"#utility.yul\":7247:7310   */\n      tag_100\n      jump\t// in\n    tag_197:\n        /* \"#utility.yul\":7153:7320   */\n      pop\n        /* \"#utility.yul\":7337:7341   */\n      dup1\n        /* \"#utility.yul\":7330:7341   */\n      swap2\n      pop\n        /* \"#utility.yul\":6001:7347   */\n      pop\n        /* \"#utility.yul\":5873:7347   */\n      swap3\n      swap2\n      pop\n      pop\n      jump\t// out\n        /* \"#utility.yul\":7353:7734   */\n    tag_16:\n        /* \"#utility.yul\":7500:7504   */\n      0x00\n        /* \"#utility.yul\":7538:7540   */\n      0x20\n        /* \"#utility.yul\":7527:7536   */\n      dup3\n        /* \"#utility.yul\":7523:7541   */\n      add\n        /* \"#utility.yul\":7515:7541   */\n      swap1\n      pop\n        /* \"#utility.yul\":7587:7596   */\n      dup2\n        /* \"#utility.yul\":7581:7585   */\n      dup2\n        /* \"#utility.yul\":7577:7597   */\n      sub\n        /* \"#utility.yul\":7573:7574   */\n      0x00\n        /* \"#utility.yul\":7562:7571   */\n      dup4\n        /* \"#utility.yul\":7558:7575   */\n      add\n        /* \"#utility.yul\":7551:7598   */\n      mstore\n        /* \"#utility.yul\":7615:7727   */\n      tag_199\n        /* \"#utility.yul\":7722:7726   */\n      dup2\n        /* \"#utility.yul\":7713:7719   */\n      dup5\n        /* \"#utility.yul\":7615:7727   */\n      tag_101\n      jump\t// in\n    tag_199:\n        /* \"#utility.yul\":7607:7727   */\n      swap1\n      pop\n        /* \"#utility.yul\":7353:7734   */\n      swap3\n      swap2\n      pop\n      pop\n      jump\t// out\n        /* \"#utility.yul\":7740:7858   */\n    tag_102:\n        /* \"#utility.yul\":7827:7851   */\n      tag_201\n        /* \"#utility.yul\":7845:7850   */\n      dup2\n        /* \"#utility.yul\":7827:7851   */\n      tag_90\n      jump\t// in\n    tag_201:\n        /* \"#utility.yul\":7822:7825   */\n      dup3\n        /* \"#utility.yul\":7815:7852   */\n      mstore\n        /* \"#utility.yul\":7740:7858   */\n      pop\n      pop\n      jump\t// out\n        /* \"#utility.yul\":7864:8086   */\n    tag_20:\n        /* \"#utility.yul\":7957:7961   */\n      0x00\n        /* \"#utility.yul\":7995:7997   */\n      0x20\n        /* \"#utility.yul\":7984:7993   */\n      dup3\n        /* \"#utility.yul\":7980:7998   */\n      add\n        /* \"#utility.yul\":7972:7998   */\n      swap1\n      pop\n        /* \"#utility.yul\":8008:8079   */\n      tag_203\n        /* \"#utility.yul\":8076:8077   */\n      0x00\n        /* \"#utility.yul\":8065:8074   */\n      dup4\n        /* \"#utility.yul\":8061:8078   */\n      add\n        /* \"#utility.yul\":8052:8058   */\n      dup5\n        /* \"#utility.yul\":8008:8079   */\n      tag_102\n      jump\t// in\n    tag_203:\n        /* \"#utility.yul\":7864:8086   */\n      swap3\n      swap2\n      pop\n      pop\n      jump\t// out\n        /* \"#utility.yul\":8092:8261   */\n    tag_103:\n        /* \"#utility.yul\":8176:8187   */\n      0x00\n        /* \"#utility.yul\":8210:8216   */\n      dup3\n        /* \"#utility.yul\":8205:8208   */\n      dup3\n        /* \"#utility.yul\":8198:8217   */\n      mstore\n        /* \"#utility.yul\":8250:8254   */\n      0x20\n        /* \"#utility.yul\":8245:8248   */\n      dup3\n        /* \"#utility.yul\":8241:8255   */\n      add\n        /* \"#utility.yul\":8226:8255   */\n      swap1\n      pop\n        /* \"#utility.yul\":8092:8261   */\n      swap3\n      swap2\n      pop\n      pop\n      jump\t// out\n        /* \"#utility.yul\":8267:8644   */\n    tag_104:\n        /* \"#utility.yul\":8355:8358   */\n      0x00\n        /* \"#utility.yul\":8383:8422   */\n      tag_206\n        /* \"#utility.yul\":8416:8421   */\n      dup3\n        /* \"#utility.yul\":8383:8422   */\n      tag_93\n      jump\t// in\n    tag_206:\n        /* \"#utility.yul\":8438:8509   */\n      tag_207\n        /* \"#utility.yul\":8502:8508   */\n      dup2\n        /* \"#utility.yul\":8497:8500   */\n      dup6\n        /* \"#utility.yul\":8438:8509   */\n      tag_103\n      jump\t// in\n    tag_207:\n        /* \"#utility.yul\":8431:8509   */\n      swap4\n      pop\n        /* \"#utility.yul\":8518:8583   */\n      tag_208\n        /* \"#utility.yul\":8576:8582   */\n      dup2\n        /* \"#utility.yul\":8571:8574   */\n      dup6\n        /* \"#utility.yul\":8564:8568   */\n      0x20\n        /* \"#utility.yul\":8557:8562   */\n      dup7\n        /* \"#utility.yul\":8553:8569   */\n      add\n        /* \"#utility.yul\":8518:8583   */\n      tag_95\n      jump\t// in\n    tag_208:\n        /* \"#utility.yul\":8608:8637   */\n      tag_209\n        /* \"#utility.yul\":8630:8636   */\n      dup2\n        /* \"#utility.yul\":8608:8637   */\n      tag_82\n      jump\t// in\n    tag_209:\n        /* \"#utility.yul\":8603:8606   */\n      dup5\n        /* \"#utility.yul\":8599:8638   */\n      add\n        /* \"#utility.yul\":8592:8638   */\n      swap2\n      pop\n        /* \"#utility.yul\":8359:8644   */\n      pop\n        /* \"#utility.yul\":8267:8644   */\n      swap3\n      swap2\n      pop\n      pop\n      jump\t// out\n        /* \"#utility.yul\":8650:8768   */\n    tag_105:\n        /* \"#utility.yul\":8737:8761   */\n      tag_211\n        /* \"#utility.yul\":8755:8760   */\n      dup2\n        /* \"#utility.yul\":8737:8761   */\n      tag_99\n      jump\t// in\n    tag_211:\n        /* \"#utility.yul\":8732:8735   */\n      dup3\n        /* \"#utility.yul\":8725:8762   */\n      mstore\n        /* \"#utility.yul\":8650:8768   */\n      pop\n      pop\n      jump\t// out\n        /* \"#utility.yul\":8774:9822   */\n    tag_25:\n        /* \"#utility.yul\":9067:9071   */\n      0x00\n        /* \"#utility.yul\":9105:9108   */\n      0xc0\n        /* \"#utility.yul\":9094:9103   */\n      dup3\n        /* \"#utility.yul\":9090:9109   */\n      add\n        /* \"#utility.yul\":9082:9109   */\n      swap1\n      pop\n        /* \"#utility.yul\":9155:9164   */\n      dup2\n        /* \"#utility.yul\":9149:9153   */\n      dup2\n        /* \"#utility.yul\":9145:9165   */\n      sub\n        /* \"#utility.yul\":9141:9142   */\n      0x00\n        /* \"#utility.yul\":9130:9139   */\n      dup4\n        /* \"#utility.yul\":9126:9143   */\n      add\n        /* \"#utility.yul\":9119:9166   */\n      mstore\n        /* \"#utility.yul\":9183:9261   */\n      tag_213\n        /* \"#utility.yul\":9256:9260   */\n      dup2\n        /* \"#utility.yul\":9247:9253   */\n      dup10\n        /* \"#utility.yul\":9183:9261   */\n      tag_104\n      jump\t// in\n    tag_213:\n        /* \"#utility.yul\":9175:9261   */\n      swap1\n      pop\n        /* \"#utility.yul\":9308:9317   */\n      dup2\n        /* \"#utility.yul\":9302:9306   */\n      dup2\n        /* \"#utility.yul\":9298:9318   */\n      sub\n        /* \"#utility.yul\":9293:9295   */\n      0x20\n        /* \"#utility.yul\":9282:9291   */\n      dup4\n        /* \"#utility.yul\":9278:9296   */\n      add\n        /* \"#utility.yul\":9271:9319   */\n      mstore\n        /* \"#utility.yul\":9336:9414   */\n      tag_214\n        /* \"#utility.yul\":9409:9413   */\n      dup2\n        /* \"#utility.yul\":9400:9406   */\n      dup9\n        /* \"#utility.yul\":9336:9414   */\n      tag_104\n      jump\t// in\n    tag_214:\n        /* \"#utility.yul\":9328:9414   */\n      swap1\n      pop\n        /* \"#utility.yul\":9461:9470   */\n      dup2\n        /* \"#utility.yul\":9455:9459   */\n      dup2\n        /* \"#utility.yul\":9451:9471   */\n      sub\n        /* \"#utility.yul\":9446:9448   */\n      0x40\n        /* \"#utility.yul\":9435:9444   */\n      dup4\n        /* \"#utility.yul\":9431:9449   */\n      add\n        /* \"#utility.yul\":9424:9472   */\n      mstore\n        /* \"#utility.yul\":9489:9567   */\n      tag_215\n        /* \"#utility.yul\":9562:9566   */\n      dup2\n        /* \"#utility.yul\":9553:9559   */\n      dup8\n        /* \"#utility.yul\":9489:9567   */\n      tag_104\n      jump\t// in\n    tag_215:\n        /* \"#utility.yul\":9481:9567   */\n      swap1\n      pop\n        /* \"#utility.yul\":9577:9649   */\n      tag_216\n        /* \"#utility.yul\":9645:9647   */\n      0x60\n        /* \"#utility.yul\":9634:9643   */\n      dup4\n        /* \"#utility.yul\":9630:9648   */\n      add\n        /* \"#utility.yul\":9621:9627   */\n      dup7\n        /* \"#utility.yul\":9577:9649   */\n      tag_102\n      jump\t// in\n    tag_216:\n        /* \"#utility.yul\":9659:9732   */\n      tag_217\n        /* \"#utility.yul\":9727:9730   */\n      0x80\n        /* \"#utility.yul\":9716:9725   */\n      dup4\n        /* \"#utility.yul\":9712:9731   */\n      add\n        /* \"#utility.yul\":9703:9709   */\n      dup6\n        /* \"#utility.yul\":9659:9732   */\n      tag_102\n      jump\t// in\n    tag_217:\n        /* \"#utility.yul\":9742:9815   */\n      tag_218\n        /* \"#utility.yul\":9810:9813   */\n      0xa0\n        /* \"#utility.yul\":9799:9808   */\n      dup4\n        /* \"#utility.yul\":9795:9814   */\n      add\n        /* \"#utility.yul\":9786:9792   */\n      dup5\n        /* \"#utility.yul\":9742:9815   */\n      tag_105\n      jump\t// in\n    tag_218:\n        /* \"#utility.yul\":8774:9822   */\n      swap8\n      swap7\n      pop\n      pop\n      pop\n      pop\n      pop\n      pop\n      pop\n      jump\t// out\n        /* \"#utility.yul\":9828:10008   */\n    tag_106:\n        /* \"#utility.yul\":9876:9953   */\n      0x4e487b7100000000000000000000000000000000000000000000000000000000\n        /* \"#utility.yul\":9873:9874   */\n      0x00\n        /* \"#utility.yul\":9866:9954   */\n      mstore\n        /* \"#utility.yul\":9973:9977   */\n      0x22\n        /* \"#utility.yul\":9970:9971   */\n      0x04\n        /* \"#utility.yul\":9963:9978   */\n      mstore\n        /* \"#utility.yul\":9997:10001   */\n      0x24\n        /* \"#utility.yul\":9994:9995   */\n      0x00\n        /* \"#utility.yul\":9987:10002   */\n      revert\n        /* \"#utility.yul\":10014:10334   */\n    tag_44:\n        /* \"#utility.yul\":10058:10064   */\n      0x00\n        /* \"#utility.yul\":10095:10096   */\n      0x02\n        /* \"#utility.yul\":10089:10093   */\n      dup3\n        /* \"#utility.yul\":10085:10097   */\n      div\n        /* \"#utility.yul\":10075:10097   */\n      swap1\n      pop\n        /* \"#utility.yul\":10142:10143   */\n      0x01\n        /* \"#utility.yul\":10136:10140   */\n      dup3\n        /* \"#utility.yul\":10132:10144   */\n      and\n        /* \"#utility.yul\":10163:10181   */\n      dup1\n        /* \"#utility.yul\":10153:10234   */\n      tag_221\n      jumpi\n        /* \"#utility.yul\":10219:10223   */\n      0x7f\n        /* \"#utility.yul\":10211:10217   */\n      dup3\n        /* \"#utility.yul\":10207:10224   */\n      and\n        /* \"#utility.yul\":10197:10224   */\n      swap2\n      pop\n        /* \"#utility.yul\":10153:10234   */\n    tag_221:\n        /* \"#utility.yul\":10281:10283   */\n      0x20\n        /* \"#utility.yul\":10273:10279   */\n      dup3\n        /* \"#utility.yul\":10270:10284   */\n      lt\n        /* \"#utility.yul\":10250:10268   */\n      dup2\n        /* \"#utility.yul\":10247:10285   */\n      sub\n        /* \"#utility.yul\":10244:10328   */\n      tag_222\n      jumpi\n        /* \"#utility.yul\":10300:10318   */\n      tag_223\n      tag_106\n      jump\t// in\n    tag_223:\n        /* \"#utility.yul\":10244:10328   */\n    tag_222:\n        /* \"#utility.yul\":10065:10334   */\n      pop\n        /* \"#utility.yul\":10014:10334   */\n      swap2\n      swap1\n      pop\n      jump\t// out\n        /* \"#utility.yul\":10340:10481   */\n    tag_107:\n        /* \"#utility.yul\":10389:10393   */\n      0x00\n        /* \"#utility.yul\":10412:10415   */\n      dup2\n        /* \"#utility.yul\":10404:10415   */\n      swap1\n      pop\n        /* \"#utility.yul\":10435:10438   */\n      dup2\n        /* \"#utility.yul\":10432:10433   */\n      0x00\n        /* \"#utility.yul\":10425:10439   */\n      mstore\n        /* \"#utility.yul\":10469:10473   */\n      0x20\n        /* \"#utility.yul\":10466:10467   */\n      0x00\n        /* \"#utility.yul\":10456:10474   */\n      keccak256\n        /* \"#utility.yul\":10448:10474   */\n      swap1\n      pop\n        /* \"#utility.yul\":10340:10481   */\n      swap2\n      swap1\n      pop\n      jump\t// out\n        /* \"#utility.yul\":10487:10580   */\n    tag_108:\n        /* \"#utility.yul\":10524:10530   */\n      0x00\n        /* \"#utility.yul\":10571:10573   */\n      0x20\n        /* \"#utility.yul\":10566:10568   */\n      0x1f\n        /* \"#utility.yul\":10559:10564   */\n      dup4\n        /* \"#utility.yul\":10555:10569   */\n      add\n        /* \"#utility.yul\":10551:10574   */\n      div\n        /* \"#utility.yul\":10541:10574   */\n      swap1\n      pop\n        /* \"#utility.yul\":10487:10580   */\n      swap2\n      swap1\n      pop\n      jump\t// out\n        /* \"#utility.yul\":10586:10693   */\n    tag_109:\n        /* \"#utility.yul\":10630:10638   */\n      0x00\n        /* \"#utility.yul\":10680:10685   */\n      dup3\n        /* \"#utility.yul\":10674:10678   */\n      dup3\n        /* \"#utility.yul\":10670:10686   */\n      shl\n        /* \"#utility.yul\":10649:10686   */\n      swap1\n      pop\n        /* \"#utility.yul\":10586:10693   */\n      swap3\n      swap2\n      pop\n      pop\n      jump\t// out\n        /* \"#utility.yul\":10699:11092   */\n    tag_110:\n        /* \"#utility.yul\":10768:10774   */\n      0x00\n        /* \"#utility.yul\":10818:10819   */\n      0x08\n        /* \"#utility.yul\":10806:10816   */\n      dup4\n        /* \"#utility.yul\":10802:10820   */\n      mul\n        /* \"#utility.yul\":10841:10938   */\n      tag_228\n        /* \"#utility.yul\":10871:10937   */\n      0xffffffffffffffffffffffffffffffffffffffffffffffffffffffffffffffff\n        /* \"#utility.yul\":10860:10869   */\n      dup3\n        /* \"#utility.yul\":10841:10938   */\n      tag_109\n      jump\t// in\n    tag_228:\n        /* \"#utility.yul\":10959:10998   */\n      tag_229\n        /* \"#utility.yul\":10989:10997   */\n      dup7\n        /* \"#utility.yul\":10978:10987   */\n      dup4\n        /* \"#utility.yul\":10959:10998   */\n      tag_109\n      jump\t// in\n    tag_229:\n        /* \"#utility.yul\":10947:10998   */\n      swap6\n      pop\n        /* \"#utility.yul\":11031:11035   */\n      dup1\n        /* \"#utility.yul\":11027:11036   */\n      not\n        /* \"#utility.yul\":11020:11025   */\n      dup5\n        /* \"#utility.yul\":11016:11037   */\n      and\n        /* \"#utility.yul\":11007:11037   */\n      swap4\n      pop\n        /* \"#utility.yul\":11080:11084   */\n      dup1\n        /* \"#utility.yul\":11070:11078   */\n      dup7\n        /* \"#utility.yul\":11066:11085   */\n      and\n        /* \"#utility.yul\":11059:11064   */\n      dup5\n        /* \"#utility.yul\":11056:11086   */\n      or\n        /* \"#utility.yul\":11046:11086   */\n      swap3\n      pop\n        /* \"#utility.yul\":10775:11092   */\n      pop\n      pop\n        /* \"#utility.yul\":10699:11092   */\n      swap4\n      swap3\n      pop\n      pop\n      pop\n      jump\t// out\n        /* \"#utility.yul\":11098:11158   */\n    tag_111:\n        /* \"#utility.yul\":11126:11129   */\n      0x00\n        /* \"#utility.yul\":11147:11152   */\n      dup2\n        /* \"#utility.yul\":11140:11152   */\n      swap1\n      pop\n        /* \"#utility.yul\":11098:11158   */\n      swap2\n      swap1\n      pop\n      jump\t// out\n        /* \"#utility.yul\":11164:11306   */\n    tag_112:\n        /* \"#utility.yul\":11214:11223   */\n      0x00\n        /* \"#utility.yul\":11247:11300   */\n      tag_232\n        /* \"#utility.yul\":11265:11299   */\n      tag_233\n        /* \"#utility.yul\":11274:11298   */\n      tag_234\n        /* \"#utility.yul\":11292:11297   */\n      dup5\n        /* \"#utility.yul\":11274:11298   */\n      tag_90\n      jump\t// in\n    tag_234:\n        /* \"#utility.yul\":11265:11299   */\n      tag_111\n      jump\t// in\n    tag_233:\n        /* \"#utility.yul\":11247:11300   */\n      tag_90\n      jump\t// in\n    tag_232:\n        /* \"#utility.yul\":11234:11300   */\n      swap1\n      pop\n        /* \"#utility.yul\":11164:11306   */\n      swap2\n      swap1\n      pop\n      jump\t// out\n        /* \"#utility.yul\":11312:11387   */\n    tag_113:\n        /* \"#utility.yul\":11355:11358   */\n      0x00\n        /* \"#utility.yul\":11376:11381   */\n      dup2\n        /* \"#utility.yul\":11369:11381   */\n      swap1\n      pop\n        /* \"#utility.yul\":11312:11387   */\n      swap2\n      swap1\n      pop\n      jump\t// out\n        /* \"#utility.yul\":11393:11662   */\n    tag_114:\n        /* \"#utility.yul\":11503:11542   */\n      tag_237\n        /* \"#utility.yul\":11534:11541   */\n      dup4\n        /* \"#utility.yul\":11503:11542   */\n      tag_112\n      jump\t// in\n    tag_237:\n        /* \"#utility.yul\":11564:11655   */\n      tag_238\n        /* \"#utility.yul\":11613:11654   */\n      tag_239\n        /* \"#utility.yul\":11637:11653   */\n      dup3\n        /* \"#utility.yul\":11613:11654   */\n      tag_113\n      jump\t// in\n    tag_239:\n        /* \"#utility.yul\":11605:11611   */\n      dup5\n        /* \"#utility.yul\":11598:11602   */\n      dup5\n        /* \"#utility.yul\":11592:11603   */\n      sload\n        /* \"#utility.yul\":11564:11655   */\n      tag_110\n      jump\t// in\n    tag_238:\n        /* \"#utility.yul\":11558:11562   */\n      dup3\n        /* \"#utility.yul\":11551:11656   */\n      sstore\n        /* \"#utility.yul\":11469:11662   */\n      pop\n        /* \"#utility.yul\":11393:11662   */\n      pop\n      pop\n      pop\n      jump\t// out\n        /* \"#utility.yul\":11668:11741   */\n    tag_115:\n        /* \"#utility.yul\":11713:11716   */\n      0x00\n        /* \"#utility.yul\":11734:11735   */\n      0x00\n        /* \"#utility.yul\":11727:11735   */\n      swap1\n      pop\n        /* \"#utility.yul\":11668:11741   */\n      swap1\n      jump\t// out\n        /* \"#utility.yul\":11747:11936   */\n    tag_116:\n        /* \"#utility.yul\":11824:11856   */\n      tag_242\n      tag_115\n      jump\t// in\n    tag_242:\n        /* \"#utility.yul\":11865:11930   */\n      tag_243\n        /* \"#utility.yul\":11923:11929   */\n      dup2\n        /* \"#utility.yul\":11915:11921   */\n      dup5\n        /* \"#utility.yul\":11909:11913   */\n      dup5\n        /* \"#utility.yul\":11865:11930   */\n      tag_114\n      jump\t// in\n    tag_243:\n        /* \"#utility.yul\":11800:11936   */\n      pop\n        /* \"#utility.yul\":11747:11936   */\n      pop\n      pop\n      jump\t// out\n        /* \"#utility.yul\":11942:12128   */\n    tag_117:\n        /* \"#utility.yul\":12002:12122   */\n    tag_245:\n        /* \"#utility.yul\":12019:12022   */\n      dup2\n        /* \"#utility.yul\":12012:12017   */\n      dup2\n        /* \"#utility.yul\":12009:12023   */\n      lt\n        /* \"#utility.yul\":12002:12122   */\n      iszero\n      tag_247\n      jumpi\n        /* \"#utility.yul\":12073:12112   */\n      tag_248\n        /* \"#utility.yul\":12110:12111   */\n      0x00\n        /* \"#utility.yul\":12103:12108   */\n      dup3\n        /* \"#utility.yul\":12073:12112   */\n      tag_116\n      jump\t// in\n    tag_248:\n        /* \"#utility.yul\":12046:12047   */\n      0x01\n        /* \"#utility.yul\":12039:12044   */\n      dup2\n        /* \"#utility.yul\":12035:12048   */\n      add\n        /* \"#utility.yul\":12026:12048   */\n      swap1\n      pop\n        /* \"#utility.yul\":12002:12122   */\n      jump(tag_245)\n    tag_247:\n        /* \"#utility.yul\":11942:12128   */\n      pop\n      pop\n      jump\t// out\n        /* \"#utility.yul\":12134:12677   */\n    tag_118:\n        /* \"#utility.yul\":12235:12237   */\n      0x1f\n        /* \"#utility.yul\":12230:12233   */\n      dup3\n        /* \"#utility.yul\":12227:12238   */\n      gt\n        /* \"#utility.yul\":12224:12670   */\n      iszero\n      tag_250\n      jumpi\n        /* \"#utility.yul\":12269:12307   */\n      tag_251\n        /* \"#utility.yul\":12301:12306   */\n      dup2\n        /* \"#utility.yul\":12269:12307   */\n      tag_107\n      jump\t// in\n    tag_251:\n        /* \"#utility.yul\":12353:12382   */\n      tag_252\n        /* \"#utility.yul\":12371:12381   */\n      dup5\n        /* \"#utility.yul\":12353:12382   */\n      tag_108\n      jump\t// in\n    tag_252:\n        /* \"#utility.yul\":12343:12351   */\n      dup2\n        /* \"#utility.yul\":12339:12383   */\n      add\n        /* \"#utility.yul\":12536:12538   */\n      0x20\n        /* \"#utility.yul\":12524:12534   */\n      dup6\n        /* \"#utility.yul\":12521:12539   */\n      lt\n        /* \"#utility.yul\":12518:12567   */\n      iszero\n      tag_253\n      jumpi\n        /* \"#utility.yul\":12557:12565   */\n      dup2\n        /* \"#utility.yul\":12542:12565   */\n      swap1\n      pop\n        /* \"#utility.yul\":12518:12567   */\n    tag_253:\n        /* \"#utility.yul\":12580:12660   */\n      tag_254\n        /* \"#utility.yul\":12636:12658   */\n      tag_255\n        /* \"#utility.yul\":12654:12657   */\n      dup6\n        /* \"#utility.yul\":12636:12658   */\n      tag_108\n      jump\t// in\n    tag_255:\n        /* \"#utility.yul\":12626:12634   */\n      dup4\n        /* \"#utility.yul\":12622:12659   */\n      add\n        /* \"#utility.yul\":12609:12620   */\n      dup3\n        /* \"#utility.yul\":12580:12660   */\n      tag_117\n      jump\t// in\n    tag_254:\n        /* \"#utility.yul\":12239:12670   */\n      pop\n      pop\n        /* \"#utility.yul\":12224:12670   */\n    tag_250:\n        /* \"#utility.yul\":12134:12677   */\n      pop\n      pop\n      pop\n      jump\t// out\n        /* \"#utility.yul\":12683:12800   */\n    tag_119:\n        /* \"#utility.yul\":12737:12745   */\n      0x00\n        /* \"#utility.yul\":12787:12792   */\n      dup3\n        /* \"#utility.yul\":12781:12785   */\n      dup3\n        /* \"#utility.yul\":12777:12793   */\n      shr\n        /* \"#utility.yul\":12756:12793   */\n      swap1\n      pop\n        /* \"#utility.yul\":12683:12800   */\n      swap3\n      swap2\n      pop\n      pop\n      jump\t// out\n        /* \"#utility.yul\":12806:12975   */\n    tag_120:\n        /* \"#utility.yul\":12850:12856   */\n      0x00\n        /* \"#utility.yul\":12883:12934   */\n      tag_258\n        /* \"#utility.yul\":12931:12932   */\n      0x00\n        /* \"#utility.yul\":12927:12933   */\n      not\n        /* \"#utility.yul\":12919:12924   */\n      dup5\n        /* \"#utility.yul\":12916:12917   */\n      0x08\n        /* \"#utility.yul\":12912:12925   */\n      mul\n        /* \"#utility.yul\":12883:12934   */\n      tag_119\n      jump\t// in\n    tag_258:\n        /* \"#utility.yul\":12879:12935   */\n      not\n        /* \"#utility.yul\":12964:12968   */\n      dup1\n        /* \"#utility.yul\":12958:12962   */\n      dup4\n        /* \"#utility.yul\":12954:12969   */\n      and\n        /* \"#utility.yul\":12944:12969   */\n      swap2\n      pop\n        /* \"#utility.yul\":12857:12975   */\n      pop\n        /* \"#utility.yul\":12806:12975   */\n      swap3\n      swap2\n      pop\n      pop\n      jump\t// out\n        /* \"#utility.yul\":12980:13275   */\n    tag_121:\n        /* \"#utility.yul\":13056:13060   */\n      0x00\n        /* \"#utility.yul\":13202:13231   */\n      tag_260\n        /* \"#utility.yul\":13227:13230   */\n      dup4\n        /* \"#utility.yul\":13221:13225   */\n      dup4\n        /* \"#utility.yul\":13202:13231   */\n      tag_120\n      jump\t// in\n    tag_260:\n        /* \"#utility.yul\":13194:13231   */\n      swap2\n      pop\n        /* \"#utility.yul\":13264:13267   */\n      dup3\n        /* \"#utility.yul\":13261:13262   */\n      0x02\n        /* \"#utility.yul\":13257:13268   */\n      mul\n        /* \"#utility.yul\":13251:13255   */\n      dup3\n        /* \"#utility.yul\":13248:13269   */\n      or\n        /* \"#utility.yul\":13240:13269   */\n      swap1\n      pop\n        /* \"#utility.yul\":12980:13275   */\n      swap3\n      swap2\n      pop\n      pop\n      jump\t// out\n        /* \"#utility.yul\":13280:14675   */\n    tag_29:\n        /* \"#utility.yul\":13397:13434   */\n      tag_262\n        /* \"#utility.yul\":13430:13433   */\n      dup3\n        /* \"#utility.yul\":13397:13434   */\n      tag_93\n      jump\t// in\n    tag_262:\n        /* \"#utility.yul\":13499:13517   */\n      0xffffffffffffffff\n        /* \"#utility.yul\":13491:13497   */\n      dup2\n        /* \"#utility.yul\":13488:13518   */\n      gt\n        /* \"#utility.yul\":13485:13541   */\n      iszero\n      tag_263\n      jumpi\n        /* \"#utility.yul\":13521:13539   */\n      tag_264\n      tag_83\n      jump\t// in\n    tag_264:\n        /* \"#utility.yul\":13485:13541   */\n    tag_263:\n        /* \"#utility.yul\":13565:13603   */\n      tag_265\n        /* \"#utility.yul\":13597:13601   */\n      dup3\n        /* \"#utility.yul\":13591:13602   */\n      sload\n        /* \"#utility.yul\":13565:13603   */\n      tag_44\n      jump\t// in\n    tag_265:\n        /* \"#utility.yul\":13650:13717   */\n      tag_266\n        /* \"#utility.yul\":13710:13716   */\n      dup3\n        /* \"#utility.yul\":13702:13708   */\n      dup3\n        /* \"#utility.yul\":13696:13700   */\n      dup6\n        /* \"#utility.yul\":13650:13717   */\n      tag_118\n      jump\t// in\n    tag_266:\n        /* \"#utility.yul\":13744:13745   */\n      0x00\n        /* \"#utility.yul\":13768:13772   */\n      0x20\n        /* \"#utility.yul\":13755:13772   */\n      swap1\n      pop\n        /* \"#utility.yul\":13800:13802   */\n      0x1f\n        /* \"#utility.yul\":13792:13798   */\n      dup4\n        /* \"#utility.yul\":13789:13803   */\n      gt\n        /* \"#utility.yul\":13817:13818   */\n      0x01\n        /* \"#utility.yul\":13812:14430   */\n      dup2\n      eq\n      tag_268\n      jumpi\n        /* \"#utility.yul\":14474:14475   */\n      0x00\n        /* \"#utility.yul\":14491:14497   */\n      dup5\n        /* \"#utility.yul\":14488:14565   */\n      iszero\n      tag_269\n      jumpi\n        /* \"#utility.yul\":14540:14549   */\n      dup3\n        /* \"#utility.yul\":14535:14538   */\n      dup8\n        /* \"#utility.yul\":14531:14550   */\n      add\n        /* \"#utility.yul\":14525:14551   */\n      mload\n        /* \"#utility.yul\":14516:14551   */\n      swap1\n      pop\n        /* \"#utility.yul\":14488:14565   */\n    tag_269:\n        /* \"#utility.yul\":14591:14658   */\n      tag_270\n        /* \"#utility.yul\":14651:14657   */\n      dup6\n        /* \"#utility.yul\":14644:14649   */\n      dup3\n        /* \"#utility.yul\":14591:14658   */\n      tag_121\n      jump\t// in\n    tag_270:\n        /* \"#utility.yul\":14585:14589   */\n      dup7\n        /* \"#utility.yul\":14578:14659   */\n      sstore\n        /* \"#utility.yul\":14447:14669   */\n      pop\n        /* \"#utility.yul\":13782:14669   */\n      jump(tag_267)\n        /* \"#utility.yul\":13812:14430   */\n    tag_268:\n        /* \"#utility.yul\":13864:13868   */\n      0x1f\n        /* \"#utility.yul\":13860:13869   */\n      not\n        /* \"#utility.yul\":13852:13858   */\n      dup5\n        /* \"#utility.yul\":13848:13870   */\n      and\n        /* \"#utility.yul\":13898:13935   */\n      tag_271\n        /* \"#utility.yul\":13930:13934   */\n      dup7\n        /* \"#utility.yul\":13898:13935   */\n      tag_107\n      jump\t// in\n    tag_271:\n        /* \"#utility.yul\":13957:13958   */\n      0x00\n        /* \"#utility.yul\":13971:14179   */\n    tag_272:\n        /* \"#utility.yul\":13985:13992   */\n      dup3\n        /* \"#utility.yul\":13982:13983   */\n      dup2\n        /* \"#utility.yul\":13979:13993   */\n      lt\n        /* \"#utility.yul\":13971:14179   */\n      iszero\n      tag_274\n      jumpi\n        /* \"#utility.yul\":14064:14073   */\n      dup5\n        /* \"#utility.yul\":14059:14062   */\n      dup10\n        /* \"#utility.yul\":14055:14074   */\n      add\n        /* \"#utility.yul\":14049:14075   */\n      mload\n        /* \"#utility.yul\":14041:14047   */\n      dup3\n        /* \"#utility.yul\":14034:14076   */\n      sstore\n        /* \"#utility.yul\":14115:14116   */\n      0x01\n        /* \"#utility.yul\":14107:14113   */\n      dup3\n        /* \"#utility.yul\":14103:14117   */\n      add\n        /* \"#utility.yul\":14093:14117   */\n      swap2\n      pop\n        /* \"#utility.yul\":14162:14164   */\n      0x20\n        /* \"#utility.yul\":14151:14160   */\n      dup6\n        /* \"#utility.yul\":14147:14165   */\n      add\n        /* \"#utility.yul\":14134:14165   */\n      swap5\n      pop\n        /* \"#utility.yul\":14008:14012   */\n      0x20\n        /* \"#utility.yul\":14005:14006   */\n      dup2\n        /* \"#utility.yul\":14001:14013   */\n      add\n        /* \"#utility.yul\":13996:14013   */\n      swap1\n      pop\n        /* \"#utility.yul\":13971:14179   */\n      jump(tag_272)\n    tag_274:\n        /* \"#utility.yul\":14207:14213   */\n      dup7\n        /* \"#utility.yul\":14198:14205   */\n      dup4\n        /* \"#utility.yul\":14195:14214   */\n      lt\n        /* \"#utility.yul\":14192:14371   */\n      iszero\n      tag_275\n      jumpi\n        /* \"#utility.yul\":14265:14274   */\n      dup5\n        /* \"#utility.yul\":14260:14263   */\n      dup10\n        /* \"#utility.yul\":14256:14275   */\n      add\n        /* \"#utility.yul\":14250:14276   */\n      mload\n        /* \"#utility.yul\":14308:14356   */\n      tag_276\n        /* \"#utility.yul\":14350:14354   */\n      0x1f\n        /* \"#utility.yul\":14342:14348   */\n      dup10\n        /* \"#utility.yul\":14338:14355   */\n      and\n        /* \"#utility.yul\":14327:14336   */\n      dup3\n        /* \"#utility.yul\":14308:14356   */\n      tag_120\n      jump\t// in\n    tag_276:\n        /* \"#utility.yul\":14300:14306   */\n      dup4\n        /* \"#utility.yul\":14293:14357   */\n      sstore\n        /* \"#utility.yul\":14215:14371   */\n      pop\n        /* \"#utility.yul\":14192:14371   */\n    tag_275:\n        /* \"#utility.yul\":14417:14418   */\n      0x01\n        /* \"#utility.yul\":14413:14414   */\n      0x02\n        /* \"#utility.yul\":14405:14411   */\n      dup9\n        /* \"#utility.yul\":14401:14415   */\n      mul\n        /* \"#utility.yul\":14397:14419   */\n      add\n        /* \"#utility.yul\":14391:14395   */\n      dup9\n        /* \"#utility.yul\":14384:14420   */\n      sstore\n        /* \"#utility.yul\":13819:14430   */\n      pop\n      pop\n      pop\n        /* \"#utility.yul\":13782:14669   */\n    tag_267:\n      pop\n        /* \"#utility.yul\":13372:14675   */\n      pop\n      pop\n      pop\n        /* \"#utility.yul\":13280:14675   */\n      pop\n      pop\n      jump\t// out\n        /* \"#utility.yul\":14681:14861   */\n    tag_122:\n        /* \"#utility.yul\":14729:14806   */\n      0x4e487b7100000000000000000000000000000000000000000000000000000000\n        /* \"#utility.yul\":14726:14727   */\n      0x00\n        /* \"#utility.yul\":14719:14807   */\n      mstore\n        /* \"#utility.yul\":14826:14830   */\n      0x11\n        /* \"#utility.yul\":14823:14824   */\n      0x04\n        /* \"#utility.yul\":14816:14831   */\n      mstore\n        /* \"#utility.yul\":14850:14854   */\n      0x24\n        /* \"#utility.yul\":14847:14848   */\n      0x00\n        /* \"#utility.yul\":14840:14855   */\n      revert\n        /* \"#utility.yul\":14867:15061   */\n    tag_33:\n        /* \"#utility.yul\":14907:14911   */\n      0x00\n        /* \"#utility.yul\":14927:14947   */\n      tag_279\n        /* \"#utility.yul\":14945:14946   */\n      dup3\n        /* \"#utility.yul\":14927:14947   */\n      tag_90\n      jump\t// in\n    tag_279:\n        /* \"#utility.yul\":14922:14947   */\n      swap2\n      pop\n        /* \"#utility.yul\":14961:14981   */\n      tag_280\n        /* \"#utility.yul\":14979:14980   */\n      dup4\n        /* \"#utility.yul\":14961:14981   */\n      tag_90\n      jump\t// in\n    tag_280:\n        /* \"#utility.yul\":14956:14981   */\n      swap3\n      pop\n        /* \"#utility.yul\":15005:15006   */\n      dup3\n        /* \"#utility.yul\":15002:15003   */\n      dup3\n        /* \"#utility.yul\":14998:15007   */\n      sub\n        /* \"#utility.yul\":14990:15007   */\n      swap1\n      pop\n        /* \"#utility.yul\":15029:15030   */\n      dup2\n        /* \"#utility.yul\":15023:15027   */\n      dup2\n        /* \"#utility.yul\":15020:15031   */\n      gt\n        /* \"#utility.yul\":15017:15054   */\n      iszero\n      tag_281\n      jumpi\n        /* \"#utility.yul\":15034:15052   */\n      tag_282\n      tag_122\n      jump\t// in\n    tag_282:\n        /* \"#utility.yul\":15017:15054   */\n    tag_281:\n        /* \"#utility.yul\":14867:15061   */\n      swap3\n      swap2\n      pop\n      pop\n      jump\t// out\n        /* \"#utility.yul\":15067:15490   */\n    tag_35:\n        /* \"#utility.yul\":15208:15212   */\n      0x00\n        /* \"#utility.yul\":15246:15248   */\n      0x40\n        /* \"#utility.yul\":15235:15244   */\n      dup3\n        /* \"#utility.yul\":15231:15249   */\n      add\n        /* \"#utility.yul\":15223:15249   */\n      swap1\n      pop\n        /* \"#utility.yul\":15295:15304   */\n      dup2\n        /* \"#utility.yul\":15289:15293   */\n      dup2\n        /* \"#utility.yul\":15285:15305   */\n      sub\n        /* \"#utility.yul\":15281:15282   */\n      0x00\n        /* \"#utility.yul\":15270:15279   */\n      dup4\n        /* \"#utility.yul\":15266:15283   */\n      add\n        /* \"#utility.yul\":15259:15306   */\n      mstore\n        /* \"#utility.yul\":15323:15401   */\n      tag_284\n        /* \"#utility.yul\":15396:15400   */\n      dup2\n        /* \"#utility.yul\":15387:15393   */\n      dup6\n        /* \"#utility.yul\":15323:15401   */\n      tag_104\n      jump\t// in\n    tag_284:\n        /* \"#utility.yul\":15315:15401   */\n      swap1\n      pop\n        /* \"#utility.yul\":15411:15483   */\n      tag_285\n        /* \"#utility.yul\":15479:15481   */\n      0x20\n        /* \"#utility.yul\":15468:15477   */\n      dup4\n        /* \"#utility.yul\":15464:15482   */\n      add\n        /* \"#utility.yul\":15455:15461   */\n      dup5\n        /* \"#utility.yul\":15411:15483   */\n      tag_102\n      jump\t// in\n    tag_285:\n        /* \"#utility.yul\":15067:15490   */\n      swap4\n      swap3\n      pop\n      pop\n      pop\n      jump\t// out\n        /* \"#utility.yul\":15496:15676   */\n    tag_41:\n        /* \"#utility.yul\":15544:15621   */\n      0x4e487b7100000000000000000000000000000000000000000000000000000000\n        /* \"#utility.yul\":15541:15542   */\n      0x00\n        /* \"#utility.yul\":15534:15622   */\n      mstore\n        /* \"#utility.yul\":15641:15645   */\n      0x32\n        /* \"#utility.yul\":15638:15639   */\n      0x04\n        /* \"#utility.yul\":15631:15646   */\n      mstore\n        /* \"#utility.yul\":15665:15669   */\n      0x24\n        /* \"#utility.yul\":15662:15663   */\n      0x00\n        /* \"#utility.yul\":15655:15670   */\n      revert\n\n    auxdata: 0xa264697066735822122077aa7c4b3f41a97129109958f6f746b5e76cf5fdcae442b9479161b56d95f51b64736f6c634300081f0033\n}\n",
				"bytecode": {
					"linkReferences": {},
					"object": "6080604052348015600e575f5ffd5b50610f548061001c5f395ff3fe608060405234801561000f575f5ffd5b506004361061004a575f3560e01c806316bcc7551461004e57806317bf37a31461006a5780636353bde61461009a578063b60e73db146100b8575b5f5ffd5b6100686004803603810190610063919061085f565b6100ed565b005b610084600480360381019061007f9190610917565b610243565b6040516100919190610a84565b60405180910390f35b6100a2610494565b6040516100af9190610ab3565b60405180910390f35b6100d260048036038101906100cd9190610917565b61049f565b6040516100e496959493929190610b23565b60405180910390f35b5f6040518060c001604052808681526020018581526020018481526020018381526020014281526020013373ffffffffffffffffffffffffffffffffffffffff16815250908060018154018082558091505060019003905f5260205f2090600602015f909190919091505f820151815f01908161016a9190610d94565b5060208201518160010190816101809190610d94565b5060408201518160020190816101969190610d94565b50606082015181600301556080820151816004015560a0820151816005015f6101000a81548173ffffffffffffffffffffffffffffffffffffffff021916908373ffffffffffffffffffffffffffffffffffffffff160217905550505060015f805490506102049190610e90565b7f734b1336565be6bd6a148a740448f916d5e3727f6b15c341087e737a5f5cc3aa8542604051610235929190610ec3565b60405180910390a250505050565b61024b610696565b5f828154811061025e5761025d610ef1565b5b905f5260205f2090600602016040518060c00160405290815f8201805461028490610bc4565b80601f01602080910402602001604051908101604052809291908181526020018280546102b090610bc4565b80156102fb5780601f106102d2576101008083540402835291602001916102fb565b820191905f5260205f20905b8154815290600101906020018083116102de57829003601f168201915b5050505050815260200160018201805461031490610bc4565b80601f016020809104026020016040519081016040528092919081815260200182805461034090610bc4565b801561038b5780601f106103625761010080835404028352916020019161038b565b820191905f5260205f20905b81548152906001019060200180831161036e57829003601f168201915b505050505081526020016002820180546103a490610bc4565b80601f01602080910402602001604051908101604052809291908181526020018280546103d090610bc4565b801561041b5780601f106103f25761010080835404028352916020019161041b565b820191905f5260205f20905b8154815290600101906020018083116103fe57829003601f168201915b505050505081526020016003820154815260200160048201548152602001600582015f9054906101000a900473ffffffffffffffffffffffffffffffffffffffff1673ffffffffffffffffffffffffffffffffffffffff1673ffffffffffffffffffffffffffffffffffffffff16815250509050919050565b5f5f80549050905090565b5f81815481106104ad575f80fd5b905f5260205f2090600602015f91509050805f0180546104cc90610bc4565b80601f01602080910402602001604051908101604052809291908181526020018280546104f890610bc4565b80156105435780601f1061051a57610100808354040283529160200191610543565b820191905f5260205f20905b81548152906001019060200180831161052657829003601f168201915b50505050509080600101805461055890610bc4565b80601f016020809104026020016040519081016040528092919081815260200182805461058490610bc4565b80156105cf5780601f106105a6576101008083540402835291602001916105cf565b820191905f5260205f20905b8154815290600101906020018083116105b257829003601f168201915b5050505050908060020180546105e490610bc4565b80601f016020809104026020016040519081016040528092919081815260200182805461061090610bc4565b801561065b5780601f106106325761010080835404028352916020019161065b565b820191905f5260205f20905b81548152906001019060200180831161063e57829003601f168201915b505050505090806003015490806004015490806005015f9054906101000a900473ffffffffffffffffffffffffffffffffffffffff16905086565b6040518060c001604052806060815260200160608152602001606081526020015f81526020015f81526020015f73ffffffffffffffffffffffffffffffffffffffff1681525090565b5f604051905090565b5f5ffd5b5f5ffd5b5f5ffd5b5f5ffd5b5f601f19601f8301169050919050565b7f4e487b71000000000000000000000000000000000000000000000000000000005f52604160045260245ffd5b61073e826106f8565b810181811067ffffffffffffffff8211171561075d5761075c610708565b5b80604052505050565b5f61076f6106df565b905061077b8282610735565b919050565b5f67ffffffffffffffff82111561079a57610799610708565b5b6107a3826106f8565b9050602081019050919050565b828183375f83830152505050565b5f6107d06107cb84610780565b610766565b9050828152602081018484840111156107ec576107eb6106f4565b5b6107f78482856107b0565b509392505050565b5f82601f830112610813576108126106f0565b5b81356108238482602086016107be565b91505092915050565b5f819050919050565b61083e8161082c565b8114610848575f5ffd5b50565b5f8135905061085981610835565b92915050565b5f5f5f5f60808587031215610877576108766106e8565b5b5f85013567ffffffffffffffff811115610894576108936106ec565b5b6108a0878288016107ff565b945050602085013567ffffffffffffffff8111156108c1576108c06106ec565b5b6108cd878288016107ff565b935050604085013567ffffffffffffffff8111156108ee576108ed6106ec565b5b6108fa878288016107ff565b925050606061090b8782880161084b565b91505092959194509250565b5f6020828403121561092c5761092b6106e8565b5b5f6109398482850161084b565b91505092915050565b5f81519050919050565b5f82825260208201905092915050565b8281835e5f83830152505050565b5f61097482610942565b61097e818561094c565b935061098e81856020860161095c565b610997816106f8565b840191505092915050565b6109ab8161082c565b82525050565b5f73ffffffffffffffffffffffffffffffffffffffff82169050919050565b5f6109da826109b1565b9050919050565b6109ea816109d0565b82525050565b5f60c083015f8301518482035f860152610a0a828261096a565b91505060208301518482036020860152610a24828261096a565b91505060408301518482036040860152610a3e828261096a565b9150506060830151610a5360608601826109a2565b506080830151610a6660808601826109a2565b5060a0830151610a7960a08601826109e1565b508091505092915050565b5f6020820190508181035f830152610a9c81846109f0565b905092915050565b610aad8161082c565b82525050565b5f602082019050610ac65f830184610aa4565b92915050565b5f82825260208201905092915050565b5f610ae682610942565b610af08185610acc565b9350610b0081856020860161095c565b610b09816106f8565b840191505092915050565b610b1d816109d0565b82525050565b5f60c0820190508181035f830152610b3b8189610adc565b90508181036020830152610b4f8188610adc565b90508181036040830152610b638187610adc565b9050610b726060830186610aa4565b610b7f6080830185610aa4565b610b8c60a0830184610b14565b979650505050505050565b7f4e487b71000000000000000000000000000000000000000000000000000000005f52602260045260245ffd5b5f6002820490506001821680610bdb57607f821691505b602082108103610bee57610bed610b97565b5b50919050565b5f819050815f5260205f209050919050565b5f6020601f8301049050919050565b5f82821b905092915050565b5f60088302610c507fffffffffffffffffffffffffffffffffffffffffffffffffffffffffffffffff82610c15565b610c5a8683610c15565b95508019841693508086168417925050509392505050565b5f819050919050565b5f610c95610c90610c8b8461082c565b610c72565b61082c565b9050919050565b5f819050919050565b610cae83610c7b565b610cc2610cba82610c9c565b848454610c21565b825550505050565b5f5f905090565b610cd9610cca565b610ce4818484610ca5565b505050565b5b81811015610d0757610cfc5f82610cd1565b600181019050610cea565b5050565b601f821115610d4c57610d1d81610bf4565b610d2684610c06565b81016020851015610d35578190505b610d49610d4185610c06565b830182610ce9565b50505b505050565b5f82821c905092915050565b5f610d6c5f1984600802610d51565b1980831691505092915050565b5f610d848383610d5d565b9150826002028217905092915050565b610d9d82610942565b67ffffffffffffffff811115610db657610db5610708565b5b610dc08254610bc4565b610dcb828285610d0b565b5f60209050601f831160018114610dfc575f8415610dea578287015190505b610df48582610d79565b865550610e5b565b601f198416610e0a86610bf4565b5f5b82811015610e3157848901518255600182019150602085019450602081019050610e0c565b86831015610e4e5784890151610e4a601f891682610d5d565b8355505b6001600288020188555050505b505050505050565b7f4e487b71000000000000000000000000000000000000000000000000000000005f52601160045260245ffd5b5f610e9a8261082c565b9150610ea58361082c565b9250828203905081811115610ebd57610ebc610e63565b5b92915050565b5f6040820190508181035f830152610edb8185610adc565b9050610eea6020830184610aa4565b9392505050565b7f4e487b71000000000000000000000000000000000000000000000000000000005f52603260045260245ffdfea264697066735822122077aa7c4b3f41a97129109958f6f746b5e76cf5fdcae442b9479161b56d95f51b64736f6c634300081f0033",
					"opcodes": "PUSH1 0x80 PUSH1 0x40 MSTORE CALLVALUE DUP1 ISZERO PUSH1 0xE JUMPI PUSH0 PUSH0 REVERT JUMPDEST POP PUSH2 0xF54 DUP1 PUSH2 0x1C PUSH0 CODECOPY PUSH0 RETURN INVALID PUSH1 0x80 PUSH1 0x40 MSTORE CALLVALUE DUP1 ISZERO PUSH2 0xF JUMPI PUSH0 PUSH0 REVERT JUMPDEST POP PUSH1 0x4 CALLDATASIZE LT PUSH2 0x4A JUMPI PUSH0 CALLDATALOAD PUSH1 0xE0 SHR DUP1 PUSH4 0x16BCC755 EQ PUSH2 0x4E JUMPI DUP1 PUSH4 0x17BF37A3 EQ PUSH2 0x6A JUMPI DUP1 PUSH4 0x6353BDE6 EQ PUSH2 0x9A JUMPI DUP1 PUSH4 0xB60E73DB EQ PUSH2 0xB8 JUMPI JUMPDEST PUSH0 PUSH0 REVERT JUMPDEST PUSH2 0x68 PUSH1 0x4 DUP1 CALLDATASIZE SUB DUP2 ADD SWAP1 PUSH2 0x63 SWAP2 SWAP1 PUSH2 0x85F JUMP JUMPDEST PUSH2 0xED JUMP JUMPDEST STOP JUMPDEST PUSH2 0x84 PUSH1 0x4 DUP1 CALLDATASIZE SUB DUP2 ADD SWAP1 PUSH2 0x7F SWAP2 SWAP1 PUSH2 0x917 JUMP JUMPDEST PUSH2 0x243 JUMP JUMPDEST PUSH1 0x40 MLOAD PUSH2 0x91 SWAP2 SWAP1 PUSH2 0xA84 JUMP JUMPDEST PUSH1 0x40 MLOAD DUP1 SWAP2 SUB SWAP1 RETURN JUMPDEST PUSH2 0xA2 PUSH2 0x494 JUMP JUMPDEST PUSH1 0x40 MLOAD PUSH2 0xAF SWAP2 SWAP1 PUSH2 0xAB3 JUMP JUMPDEST PUSH1 0x40 MLOAD DUP1 SWAP2 SUB SWAP1 RETURN JUMPDEST PUSH2 0xD2 PUSH1 0x4 DUP1 CALLDATASIZE SUB DUP2 ADD SWAP1 PUSH2 0xCD SWAP2 SWAP1 PUSH2 0x917 JUMP JUMPDEST PUSH2 0x49F JUMP JUMPDEST PUSH1 0x40 MLOAD PUSH2 0xE4 SWAP7 SWAP6 SWAP5 SWAP4 SWAP3 SWAP2 SWAP1 PUSH2 0xB23 JUMP JUMPDEST PUSH1 0x40 MLOAD DUP1 SWAP2 SUB SWAP1 RETURN JUMPDEST PUSH0 PUSH1 0x40 MLOAD DUP1 PUSH1 0xC0 ADD PUSH1 0x40 MSTORE DUP1 DUP7 DUP2 MSTORE PUSH1 0x20 ADD DUP6 DUP2 MSTORE PUSH1 0x20 ADD DUP5 DUP2 MSTORE PUSH1 0x20 ADD DUP4 DUP2 MSTORE PUSH1 0x20 ADD TIMESTAMP DUP2 MSTORE PUSH1 0x20 ADD CALLER PUSH20 0xFFFFFFFFFFFFFFFFFFFFFFFFFFFFFFFFFFFFFFFF AND DUP2 MSTORE POP SWAP1 DUP1 PUSH1 0x1 DUP2 SLOAD ADD DUP1 DUP3 SSTORE DUP1 SWAP2 POP POP PUSH1 0x1 SWAP1 SUB SWAP1 PUSH0 MSTORE PUSH1 0x20 PUSH0 KECCAK256 SWAP1 PUSH1 0x6 MUL ADD PUSH0 SWAP1 SWAP2 SWAP1 SWAP2 SWAP1 SWAP2 POP PUSH0 DUP3 ADD MLOAD DUP2 PUSH0 ADD SWAP1 DUP2 PUSH2 0x16A SWAP2 SWAP1 PUSH2 0xD94 JUMP JUMPDEST POP PUSH1 0x20 DUP3 ADD MLOAD DUP2 PUSH1 0x1 ADD SWAP1 DUP2 PUSH2 0x180 SWAP2 SWAP1 PUSH2 0xD94 JUMP JUMPDEST POP PUSH1 0x40 DUP3 ADD MLOAD DUP2 PUSH1 0x2 ADD SWAP1 DUP2 PUSH2 0x196 SWAP2 SWAP1 PUSH2 0xD94 JUMP JUMPDEST POP PUSH1 0x60 DUP3 ADD MLOAD DUP2 PUSH1 0x3 ADD SSTORE PUSH1 0x80 DUP3 ADD MLOAD DUP2 PUSH1 0x4 ADD SSTORE PUSH1 0xA0 DUP3 ADD MLOAD DUP2 PUSH1 0x5 ADD PUSH0 PUSH2 0x100 EXP DUP2 SLOAD DUP2 PUSH20 0xFFFFFFFFFFFFFFFFFFFFFFFFFFFFFFFFFFFFFFFF MUL NOT AND SWAP1 DUP4 PUSH20 0xFFFFFFFFFFFFFFFFFFFFFFFFFFFFFFFFFFFFFFFF AND MUL OR SWAP1 SSTORE POP POP POP PUSH1 0x1 PUSH0 DUP1 SLOAD SWAP1 POP PUSH2 0x204 SWAP2 SWAP1 PUSH2 0xE90 JUMP JUMPDEST PUSH32 0x734B1336565BE6BD6A148A740448F916D5E3727F6B15C341087E737A5F5CC3AA DUP6 TIMESTAMP PUSH1 0x40 MLOAD PUSH2 0x235 SWAP3 SWAP2 SWAP1 PUSH2 0xEC3 JUMP JUMPDEST PUSH1 0x40 MLOAD DUP1 SWAP2 SUB SWAP1 LOG2 POP POP POP POP JUMP JUMPDEST PUSH2 0x24B PUSH2 0x696 JUMP JUMPDEST PUSH0 DUP3 DUP2 SLOAD DUP2 LT PUSH2 0x25E JUMPI PUSH2 0x25D PUSH2 0xEF1 JUMP JUMPDEST JUMPDEST SWAP1 PUSH0 MSTORE PUSH1 0x20 PUSH0 KECCAK256 SWAP1 PUSH1 0x6 MUL ADD PUSH1 0x40 MLOAD DUP1 PUSH1 0xC0 ADD PUSH1 0x40 MSTORE SWAP1 DUP2 PUSH0 DUP3 ADD DUP1 SLOAD PUSH2 0x284 SWAP1 PUSH2 0xBC4 JUMP JUMPDEST DUP1 PUSH1 0x1F ADD PUSH1 0x20 DUP1 SWAP2 DIV MUL PUSH1 0x20 ADD PUSH1 0x40 MLOAD SWAP1 DUP2 ADD PUSH1 0x40 MSTORE DUP1 SWAP3 SWAP2 SWAP1 DUP2 DUP2 MSTORE PUSH1 0x20 ADD DUP3 DUP1 SLOAD PUSH2 0x2B0 SWAP1 PUSH2 0xBC4 JUMP JUMPDEST DUP1 ISZERO PUSH2 0x2FB JUMPI DUP1 PUSH1 0x1F LT PUSH2 0x2D2 JUMPI PUSH2 0x100 DUP1 DUP4 SLOAD DIV MUL DUP4 MSTORE SWAP2 PUSH1 0x20 ADD SWAP2 PUSH2 0x2FB JUMP JUMPDEST DUP3 ADD SWAP2 SWAP1 PUSH0 MSTORE PUSH1 0x20 PUSH0 KECCAK256 SWAP1 JUMPDEST DUP2 SLOAD DUP2 MSTORE SWAP1 PUSH1 0x1 ADD SWAP1 PUSH1 0x20 ADD DUP1 DUP4 GT PUSH2 0x2DE JUMPI DUP3 SWAP1 SUB PUSH1 0x1F AND DUP3 ADD SWAP2 JUMPDEST POP POP POP POP POP DUP2 MSTORE PUSH1 0x20 ADD PUSH1 0x1 DUP3 ADD DUP1 SLOAD PUSH2 0x314 SWAP1 PUSH2 0xBC4 JUMP JUMPDEST DUP1 PUSH1 0x1F ADD PUSH1 0x20 DUP1 SWAP2 DIV MUL PUSH1 0x20 ADD PUSH1 0x40 MLOAD SWAP1 DUP2 ADD PUSH1 0x40 MSTORE DUP1 SWAP3 SWAP2 SWAP1 DUP2 DUP2 MSTORE PUSH1 0x20 ADD DUP3 DUP1 SLOAD PUSH2 0x340 SWAP1 PUSH2 0xBC4 JUMP JUMPDEST DUP1 ISZERO PUSH2 0x38B JUMPI DUP1 PUSH1 0x1F LT PUSH2 0x362 JUMPI PUSH2 0x100 DUP1 DUP4 SLOAD DIV MUL DUP4 MSTORE SWAP2 PUSH1 0x20 ADD SWAP2 PUSH2 0x38B JUMP JUMPDEST DUP3 ADD SWAP2 SWAP1 PUSH0 MSTORE PUSH1 0x20 PUSH0 KECCAK256 SWAP1 JUMPDEST DUP2 SLOAD DUP2 MSTORE SWAP1 PUSH1 0x1 ADD SWAP1 PUSH1 0x20 ADD DUP1 DUP4 GT PUSH2 0x36E JUMPI DUP3 SWAP1 SUB PUSH1 0x1F AND DUP3 ADD SWAP2 JUMPDEST POP POP POP POP POP DUP2 MSTORE PUSH1 0x20 ADD PUSH1 0x2 DUP3 ADD DUP1 SLOAD PUSH2 0x3A4 SWAP1 PUSH2 0xBC4 JUMP JUMPDEST DUP1 PUSH1 0x1F ADD PUSH1 0x20 DUP1 SWAP2 DIV MUL PUSH1 0x20 ADD PUSH1 0x40 MLOAD SWAP1 DUP2 ADD PUSH1 0x40 MSTORE DUP1 SWAP3 SWAP2 SWAP1 DUP2 DUP2 MSTORE PUSH1 0x20 ADD DUP3 DUP1 SLOAD PUSH2 0x3D0 SWAP1 PUSH2 0xBC4 JUMP JUMPDEST DUP1 ISZERO PUSH2 0x41B JUMPI DUP1 PUSH1 0x1F LT PUSH2 0x3F2 JUMPI PUSH2 0x100 DUP1 DUP4 SLOAD DIV MUL DUP4 MSTORE SWAP2 PUSH1 0x20 ADD SWAP2 PUSH2 0x41B JUMP JUMPDEST DUP3 ADD SWAP2 SWAP1 PUSH0 MSTORE PUSH1 0x20 PUSH0 KECCAK256 SWAP1 JUMPDEST DUP2 SLOAD DUP2 MSTORE SWAP1 PUSH1 0x1 ADD SWAP1 PUSH1 0x20 ADD DUP1 DUP4 GT PUSH2 0x3FE JUMPI DUP3 SWAP1 SUB PUSH1 0x1F AND DUP3 ADD SWAP2 JUMPDEST POP POP POP POP POP DUP2 MSTORE PUSH1 0x20 ADD PUSH1 0x3 DUP3 ADD SLOAD DUP2 MSTORE PUSH1 0x20 ADD PUSH1 0x4 DUP3 ADD SLOAD DUP2 MSTORE PUSH1 0x20 ADD PUSH1 0x5 DUP3 ADD PUSH0 SWAP1 SLOAD SWAP1 PUSH2 0x100 EXP SWAP1 DIV PUSH20 0xFFFFFFFFFFFFFFFFFFFFFFFFFFFFFFFFFFFFFFFF AND PUSH20 0xFFFFFFFFFFFFFFFFFFFFFFFFFFFFFFFFFFFFFFFF AND PUSH20 0xFFFFFFFFFFFFFFFFFFFFFFFFFFFFFFFFFFFFFFFF AND DUP2 MSTORE POP POP SWAP1 POP SWAP2 SWAP1 POP JUMP JUMPDEST PUSH0 PUSH0 DUP1 SLOAD SWAP1 POP SWAP1 POP SWAP1 JUMP JUMPDEST PUSH0 DUP2 DUP2 SLOAD DUP2 LT PUSH2 0x4AD JUMPI PUSH0 DUP1 REVERT JUMPDEST SWAP1 PUSH0 MSTORE PUSH1 0x20 PUSH0 KECCAK256 SWAP1 PUSH1 0x6 MUL ADD PUSH0 SWAP2 POP SWAP1 POP DUP1 PUSH0 ADD DUP1 SLOAD PUSH2 0x4CC SWAP1 PUSH2 0xBC4 JUMP JUMPDEST DUP1 PUSH1 0x1F ADD PUSH1 0x20 DUP1 SWAP2 DIV MUL PUSH1 0x20 ADD PUSH1 0x40 MLOAD SWAP1 DUP2 ADD PUSH1 0x40 MSTORE DUP1 SWAP3 SWAP2 SWAP1 DUP2 DUP2 MSTORE PUSH1 0x20 ADD DUP3 DUP1 SLOAD PUSH2 0x4F8 SWAP1 PUSH2 0xBC4 JUMP JUMPDEST DUP1 ISZERO PUSH2 0x543 JUMPI DUP1 PUSH1 0x1F LT PUSH2 0x51A JUMPI PUSH2 0x100 DUP1 DUP4 SLOAD DIV MUL DUP4 MSTORE SWAP2 PUSH1 0x20 ADD SWAP2 PUSH2 0x543 JUMP JUMPDEST DUP3 ADD SWAP2 SWAP1 PUSH0 MSTORE PUSH1 0x20 PUSH0 KECCAK256 SWAP1 JUMPDEST DUP2 SLOAD DUP2 MSTORE SWAP1 PUSH1 0x1 ADD SWAP1 PUSH1 0x20 ADD DUP1 DUP4 GT PUSH2 0x526 JUMPI DUP3 SWAP1 SUB PUSH1 0x1F AND DUP3 ADD SWAP2 JUMPDEST POP POP POP POP POP SWAP1 DUP1 PUSH1 0x1 ADD DUP1 SLOAD PUSH2 0x558 SWAP1 PUSH2 0xBC4 JUMP JUMPDEST DUP1 PUSH1 0x1F ADD PUSH1 0x20 DUP1 SWAP2 DIV MUL PUSH1 0x20 ADD PUSH1 0x40 MLOAD SWAP1 DUP2 ADD PUSH1 0x40 MSTORE DUP1 SWAP3 SWAP2 SWAP1 DUP2 DUP2 MSTORE PUSH1 0x20 ADD DUP3 DUP1 SLOAD PUSH2 0x584 SWAP1 PUSH2 0xBC4 JUMP JUMPDEST DUP1 ISZERO PUSH2 0x5CF JUMPI DUP1 PUSH1 0x1F LT PUSH2 0x5A6 JUMPI PUSH2 0x100 DUP1 DUP4 SLOAD DIV MUL DUP4 MSTORE SWAP2 PUSH1 0x20 ADD SWAP2 PUSH2 0x5CF JUMP JUMPDEST DUP3 ADD SWAP2 SWAP1 PUSH0 MSTORE PUSH1 0x20 PUSH0 KECCAK256 SWAP1 JUMPDEST DUP2 SLOAD DUP2 MSTORE SWAP1 PUSH1 0x1 ADD SWAP1 PUSH1 0x20 ADD DUP1 DUP4 GT PUSH2 0x5B2 JUMPI DUP3 SWAP1 SUB PUSH1 0x1F AND DUP3 ADD SWAP2 JUMPDEST POP POP POP POP POP SWAP1 DUP1 PUSH1 0x2 ADD DUP1 SLOAD PUSH2 0x5E4 SWAP1 PUSH2 0xBC4 JUMP JUMPDEST DUP1 PUSH1 0x1F ADD PUSH1 0x20 DUP1 SWAP2 DIV MUL PUSH1 0x20 ADD PUSH1 0x40 MLOAD SWAP1 DUP2 ADD PUSH1 0x40 MSTORE DUP1 SWAP3 SWAP2 SWAP1 DUP2 DUP2 MSTORE PUSH1 0x20 ADD DUP3 DUP1 SLOAD PUSH2 0x610 SWAP1 PUSH2 0xBC4 JUMP JUMPDEST DUP1 ISZERO PUSH2 0x65B JUMPI DUP1 PUSH1 0x1F LT PUSH2 0x632 JUMPI PUSH2 0x100 DUP1 DUP4 SLOAD DIV MUL DUP4 MSTORE SWAP2 PUSH1 0x20 ADD SWAP2 PUSH2 0x65B JUMP JUMPDEST DUP3 ADD SWAP2 SWAP1 PUSH0 MSTORE PUSH1 0x20 PUSH0 KECCAK256 SWAP1 JUMPDEST DUP2 SLOAD DUP2 MSTORE SWAP1 PUSH1 0x1 ADD SWAP1 PUSH1 0x20 ADD DUP1 DUP4 GT PUSH2 0x63E JUMPI DUP3 SWAP1 SUB PUSH1 0x1F AND DUP3 ADD SWAP2 JUMPDEST POP POP POP POP POP SWAP1 DUP1 PUSH1 0x3 ADD SLOAD SWAP1 DUP1 PUSH1 0x4 ADD SLOAD SWAP1 DUP1 PUSH1 0x5 ADD PUSH0 SWAP1 SLOAD SWAP1 PUSH2 0x100 EXP SWAP1 DIV PUSH20 0xFFFFFFFFFFFFFFFFFFFFFFFFFFFFFFFFFFFFFFFF AND SWAP1 POP DUP7 JUMP JUMPDEST PUSH1 0x40 MLOAD DUP1 PUSH1 0xC0 ADD PUSH1 0x40 MSTORE DUP1 PUSH1 0x60 DUP2 MSTORE PUSH1 0x20 ADD PUSH1 0x60 DUP2 MSTORE PUSH1 0x20 ADD PUSH1 0x60 DUP2 MSTORE PUSH1 0x20 ADD PUSH0 DUP2 MSTORE PUSH1 0x20 ADD PUSH0 DUP2 MSTORE PUSH1 0x20 ADD PUSH0 PUSH20 0xFFFFFFFFFFFFFFFFFFFFFFFFFFFFFFFFFFFFFFFF AND DUP2 MSTORE POP SWAP1 JUMP JUMPDEST PUSH0 PUSH1 0x40 MLOAD SWAP1 POP SWAP1 JUMP JUMPDEST PUSH0 PUSH0 REVERT JUMPDEST PUSH0 PUSH0 REVERT JUMPDEST PUSH0 PUSH0 REVERT JUMPDEST PUSH0 PUSH0 REVERT JUMPDEST PUSH0 PUSH1 0x1F NOT PUSH1 0x1F DUP4 ADD AND SWAP1 POP SWAP2 SWAP1 POP JUMP JUMPDEST PUSH32 0x4E487B7100000000000000000000000000000000000000000000000000000000 PUSH0 MSTORE PUSH1 0x41 PUSH1 0x4 MSTORE PUSH1 0x24 PUSH0 REVERT JUMPDEST PUSH2 0x73E DUP3 PUSH2 0x6F8 JUMP JUMPDEST DUP2 ADD DUP2 DUP2 LT PUSH8 0xFFFFFFFFFFFFFFFF DUP3 GT OR ISZERO PUSH2 0x75D JUMPI PUSH2 0x75C PUSH2 0x708 JUMP JUMPDEST JUMPDEST DUP1 PUSH1 0x40 MSTORE POP POP POP JUMP JUMPDEST PUSH0 PUSH2 0x76F PUSH2 0x6DF JUMP JUMPDEST SWAP1 POP PUSH2 0x77B DUP3 DUP3 PUSH2 0x735 JUMP JUMPDEST SWAP2 SWAP1 POP JUMP JUMPDEST PUSH0 PUSH8 0xFFFFFFFFFFFFFFFF DUP3 GT ISZERO PUSH2 0x79A JUMPI PUSH2 0x799 PUSH2 0x708 JUMP JUMPDEST JUMPDEST PUSH2 0x7A3 DUP3 PUSH2 0x6F8 JUMP JUMPDEST SWAP1 POP PUSH1 0x20 DUP2 ADD SWAP1 POP SWAP2 SWAP1 POP JUMP JUMPDEST DUP3 DUP2 DUP4 CALLDATACOPY PUSH0 DUP4 DUP4 ADD MSTORE POP POP POP JUMP JUMPDEST PUSH0 PUSH2 0x7D0 PUSH2 0x7CB DUP5 PUSH2 0x780 JUMP JUMPDEST PUSH2 0x766 JUMP JUMPDEST SWAP1 POP DUP3 DUP2 MSTORE PUSH1 0x20 DUP2 ADD DUP5 DUP5 DUP5 ADD GT ISZERO PUSH2 0x7EC JUMPI PUSH2 0x7EB PUSH2 0x6F4 JUMP JUMPDEST JUMPDEST PUSH2 0x7F7 DUP5 DUP3 DUP6 PUSH2 0x7B0 JUMP JUMPDEST POP SWAP4 SWAP3 POP POP POP JUMP JUMPDEST PUSH0 DUP3 PUSH1 0x1F DUP4 ADD SLT PUSH2 0x813 JUMPI PUSH2 0x812 PUSH2 0x6F0 JUMP JUMPDEST JUMPDEST DUP2 CALLDATALOAD PUSH2 0x823 DUP5 DUP3 PUSH1 0x20 DUP7 ADD PUSH2 0x7BE JUMP JUMPDEST SWAP2 POP POP SWAP3 SWAP2 POP POP JUMP JUMPDEST PUSH0 DUP2 SWAP1 POP SWAP2 SWAP1 POP JUMP JUMPDEST PUSH2 0x83E DUP2 PUSH2 0x82C JUMP JUMPDEST DUP2 EQ PUSH2 0x848 JUMPI PUSH0 PUSH0 REVERT JUMPDEST POP JUMP JUMPDEST PUSH0 DUP2 CALLDATALOAD SWAP1 POP PUSH2 0x859 DUP2 PUSH2 0x835 JUMP JUMPDEST SWAP3 SWAP2 POP POP JUMP JUMPDEST PUSH0 PUSH0 PUSH0 PUSH0 PUSH1 0x80 DUP6 DUP8 SUB SLT ISZERO PUSH2 0x877 JUMPI PUSH2 0x876 PUSH2 0x6E8 JUMP JUMPDEST JUMPDEST PUSH0 DUP6 ADD CALLDATALOAD PUSH8 0xFFFFFFFFFFFFFFFF DUP2 GT ISZERO PUSH2 0x894 JUMPI PUSH2 0x893 PUSH2 0x6EC JUMP JUMPDEST JUMPDEST PUSH2 0x8A0 DUP8 DUP3 DUP9 ADD PUSH2 0x7FF JUMP JUMPDEST SWAP5 POP POP PUSH1 0x20 DUP6 ADD CALLDATALOAD PUSH8 0xFFFFFFFFFFFFFFFF DUP2 GT ISZERO PUSH2 0x8C1 JUMPI PUSH2 0x8C0 PUSH2 0x6EC JUMP JUMPDEST JUMPDEST PUSH2 0x8CD DUP8 DUP3 DUP9 ADD PUSH2 0x7FF JUMP JUMPDEST SWAP4 POP POP PUSH1 0x40 DUP6 ADD CALLDATALOAD PUSH8 0xFFFFFFFFFFFFFFFF DUP2 GT ISZERO PUSH2 0x8EE JUMPI PUSH2 0x8ED PUSH2 0x6EC JUMP JUMPDEST JUMPDEST PUSH2 0x8FA DUP8 DUP3 DUP9 ADD PUSH2 0x7FF JUMP JUMPDEST SWAP3 POP POP PUSH1 0x60 PUSH2 0x90B DUP8 DUP3 DUP9 ADD PUSH2 0x84B JUMP JUMPDEST SWAP2 POP POP SWAP3 SWAP6 SWAP2 SWAP5 POP SWAP3 POP JUMP JUMPDEST PUSH0 PUSH1 0x20 DUP3 DUP5 SUB SLT ISZERO PUSH2 0x92C JUMPI PUSH2 0x92B PUSH2 0x6E8 JUMP JUMPDEST JUMPDEST PUSH0 PUSH2 0x939 DUP5 DUP3 DUP6 ADD PUSH2 0x84B JUMP JUMPDEST SWAP2 POP POP SWAP3 SWAP2 POP POP JUMP JUMPDEST PUSH0 DUP2 MLOAD SWAP1 POP SWAP2 SWAP1 POP JUMP JUMPDEST PUSH0 DUP3 DUP3 MSTORE PUSH1 0x20 DUP3 ADD SWAP1 POP SWAP3 SWAP2 POP POP JUMP JUMPDEST DUP3 DUP2 DUP4 MCOPY PUSH0 DUP4 DUP4 ADD MSTORE POP POP POP JUMP JUMPDEST PUSH0 PUSH2 0x974 DUP3 PUSH2 0x942 JUMP JUMPDEST PUSH2 0x97E DUP2 DUP6 PUSH2 0x94C JUMP JUMPDEST SWAP4 POP PUSH2 0x98E DUP2 DUP6 PUSH1 0x20 DUP7 ADD PUSH2 0x95C JUMP JUMPDEST PUSH2 0x997 DUP2 PUSH2 0x6F8 JUMP JUMPDEST DUP5 ADD SWAP2 POP POP SWAP3 SWAP2 POP POP JUMP JUMPDEST PUSH2 0x9AB DUP2 PUSH2 0x82C JUMP JUMPDEST DUP3 MSTORE POP POP JUMP JUMPDEST PUSH0 PUSH20 0xFFFFFFFFFFFFFFFFFFFFFFFFFFFFFFFFFFFFFFFF DUP3 AND SWAP1 POP SWAP2 SWAP1 POP JUMP JUMPDEST PUSH0 PUSH2 0x9DA DUP3 PUSH2 0x9B1 JUMP JUMPDEST SWAP1 POP SWAP2 SWAP1 POP JUMP JUMPDEST PUSH2 0x9EA DUP2 PUSH2 0x9D0 JUMP JUMPDEST DUP3 MSTORE POP POP JUMP JUMPDEST PUSH0 PUSH1 0xC0 DUP4 ADD PUSH0 DUP4 ADD MLOAD DUP5 DUP3 SUB PUSH0 DUP7 ADD MSTORE PUSH2 0xA0A DUP3 DUP3 PUSH2 0x96A JUMP JUMPDEST SWAP2 POP POP PUSH1 0x20 DUP4 ADD MLOAD DUP5 DUP3 SUB PUSH1 0x20 DUP7 ADD MSTORE PUSH2 0xA24 DUP3 DUP3 PUSH2 0x96A JUMP JUMPDEST SWAP2 POP POP PUSH1 0x40 DUP4 ADD MLOAD DUP5 DUP3 SUB PUSH1 0x40 DUP7 ADD MSTORE PUSH2 0xA3E DUP3 DUP3 PUSH2 0x96A JUMP JUMPDEST SWAP2 POP POP PUSH1 0x60 DUP4 ADD MLOAD PUSH2 0xA53 PUSH1 0x60 DUP7 ADD DUP3 PUSH2 0x9A2 JUMP JUMPDEST POP PUSH1 0x80 DUP4 ADD MLOAD PUSH2 0xA66 PUSH1 0x80 DUP7 ADD DUP3 PUSH2 0x9A2 JUMP JUMPDEST POP PUSH1 0xA0 DUP4 ADD MLOAD PUSH2 0xA79 PUSH1 0xA0 DUP7 ADD DUP3 PUSH2 0x9E1 JUMP JUMPDEST POP DUP1 SWAP2 POP POP SWAP3 SWAP2 POP POP JUMP JUMPDEST PUSH0 PUSH1 0x20 DUP3 ADD SWAP1 POP DUP2 DUP2 SUB PUSH0 DUP4 ADD MSTORE PUSH2 0xA9C DUP2 DUP5 PUSH2 0x9F0 JUMP JUMPDEST SWAP1 POP SWAP3 SWAP2 POP POP JUMP JUMPDEST PUSH2 0xAAD DUP2 PUSH2 0x82C JUMP JUMPDEST DUP3 MSTORE POP POP JUMP JUMPDEST PUSH0 PUSH1 0x20 DUP3 ADD SWAP1 POP PUSH2 0xAC6 PUSH0 DUP4 ADD DUP5 PUSH2 0xAA4 JUMP JUMPDEST SWAP3 SWAP2 POP POP JUMP JUMPDEST PUSH0 DUP3 DUP3 MSTORE PUSH1 0x20 DUP3 ADD SWAP1 POP SWAP3 SWAP2 POP POP JUMP JUMPDEST PUSH0 PUSH2 0xAE6 DUP3 PUSH2 0x942 JUMP JUMPDEST PUSH2 0xAF0 DUP2 DUP6 PUSH2 0xACC JUMP JUMPDEST SWAP4 POP PUSH2 0xB00 DUP2 DUP6 PUSH1 0x20 DUP7 ADD PUSH2 0x95C JUMP JUMPDEST PUSH2 0xB09 DUP2 PUSH2 0x6F8 JUMP JUMPDEST DUP5 ADD SWAP2 POP POP SWAP3 SWAP2 POP POP JUMP JUMPDEST PUSH2 0xB1D DUP2 PUSH2 0x9D0 JUMP JUMPDEST DUP3 MSTORE POP POP JUMP JUMPDEST PUSH0 PUSH1 0xC0 DUP3 ADD SWAP1 POP DUP2 DUP2 SUB PUSH0 DUP4 ADD MSTORE PUSH2 0xB3B DUP2 DUP10 PUSH2 0xADC JUMP JUMPDEST SWAP1 POP DUP2 DUP2 SUB PUSH1 0x20 DUP4 ADD MSTORE PUSH2 0xB4F DUP2 DUP9 PUSH2 0xADC JUMP JUMPDEST SWAP1 POP DUP2 DUP2 SUB PUSH1 0x40 DUP4 ADD MSTORE PUSH2 0xB63 DUP2 DUP8 PUSH2 0xADC JUMP JUMPDEST SWAP1 POP PUSH2 0xB72 PUSH1 0x60 DUP4 ADD DUP7 PUSH2 0xAA4 JUMP JUMPDEST PUSH2 0xB7F PUSH1 0x80 DUP4 ADD DUP6 PUSH2 0xAA4 JUMP JUMPDEST PUSH2 0xB8C PUSH1 0xA0 DUP4 ADD DUP5 PUSH2 0xB14 JUMP JUMPDEST SWAP8 SWAP7 POP POP POP POP POP POP POP JUMP JUMPDEST PUSH32 0x4E487B7100000000000000000000000000000000000000000000000000000000 PUSH0 MSTORE PUSH1 0x22 PUSH1 0x4 MSTORE PUSH1 0x24 PUSH0 REVERT JUMPDEST PUSH0 PUSH1 0x2 DUP3 DIV SWAP1 POP PUSH1 0x1 DUP3 AND DUP1 PUSH2 0xBDB JUMPI PUSH1 0x7F DUP3 AND SWAP2 POP JUMPDEST PUSH1 0x20 DUP3 LT DUP2 SUB PUSH2 0xBEE JUMPI PUSH2 0xBED PUSH2 0xB97 JUMP JUMPDEST JUMPDEST POP SWAP2 SWAP1 POP JUMP JUMPDEST PUSH0 DUP2 SWAP1 POP DUP2 PUSH0 MSTORE PUSH1 0x20 PUSH0 KECCAK256 SWAP1 POP SWAP2 SWAP1 POP JUMP JUMPDEST PUSH0 PUSH1 0x20 PUSH1 0x1F DUP4 ADD DIV SWAP1 POP SWAP2 SWAP1 POP JUMP JUMPDEST PUSH0 DUP3 DUP3 SHL SWAP1 POP SWAP3 SWAP2 POP POP JUMP JUMPDEST PUSH0 PUSH1 0x8 DUP4 MUL PUSH2 0xC50 PUSH32 0xFFFFFFFFFFFFFFFFFFFFFFFFFFFFFFFFFFFFFFFFFFFFFFFFFFFFFFFFFFFFFFFF DUP3 PUSH2 0xC15 JUMP JUMPDEST PUSH2 0xC5A DUP7 DUP4 PUSH2 0xC15 JUMP JUMPDEST SWAP6 POP DUP1 NOT DUP5 AND SWAP4 POP DUP1 DUP7 AND DUP5 OR SWAP3 POP POP POP SWAP4 SWAP3 POP POP POP JUMP JUMPDEST PUSH0 DUP2 SWAP1 POP SWAP2 SWAP1 POP JUMP JUMPDEST PUSH0 PUSH2 0xC95 PUSH2 0xC90 PUSH2 0xC8B DUP5 PUSH2 0x82C JUMP JUMPDEST PUSH2 0xC72 JUMP JUMPDEST PUSH2 0x82C JUMP JUMPDEST SWAP1 POP SWAP2 SWAP1 POP JUMP JUMPDEST PUSH0 DUP2 SWAP1 POP SWAP2 SWAP1 POP JUMP JUMPDEST PUSH2 0xCAE DUP4 PUSH2 0xC7B JUMP JUMPDEST PUSH2 0xCC2 PUSH2 0xCBA DUP3 PUSH2 0xC9C JUMP JUMPDEST DUP5 DUP5 SLOAD PUSH2 0xC21 JUMP JUMPDEST DUP3 SSTORE POP POP POP POP JUMP JUMPDEST PUSH0 PUSH0 SWAP1 POP SWAP1 JUMP JUMPDEST PUSH2 0xCD9 PUSH2 0xCCA JUMP JUMPDEST PUSH2 0xCE4 DUP2 DUP5 DUP5 PUSH2 0xCA5 JUMP JUMPDEST POP POP POP JUMP JUMPDEST JUMPDEST DUP2 DUP2 LT ISZERO PUSH2 0xD07 JUMPI PUSH2 0xCFC PUSH0 DUP3 PUSH2 0xCD1 JUMP JUMPDEST PUSH1 0x1 DUP2 ADD SWAP1 POP PUSH2 0xCEA JUMP JUMPDEST POP POP JUMP JUMPDEST PUSH1 0x1F DUP3 GT ISZERO PUSH2 0xD4C JUMPI PUSH2 0xD1D DUP2 PUSH2 0xBF4 JUMP JUMPDEST PUSH2 0xD26 DUP5 PUSH2 0xC06 JUMP JUMPDEST DUP2 ADD PUSH1 0x20 DUP6 LT ISZERO PUSH2 0xD35 JUMPI DUP2 SWAP1 POP JUMPDEST PUSH2 0xD49 PUSH2 0xD41 DUP6 PUSH2 0xC06 JUMP JUMPDEST DUP4 ADD DUP3 PUSH2 0xCE9 JUMP JUMPDEST POP POP JUMPDEST POP POP POP JUMP JUMPDEST PUSH0 DUP3 DUP3 SHR SWAP1 POP SWAP3 SWAP2 POP POP JUMP JUMPDEST PUSH0 PUSH2 0xD6C PUSH0 NOT DUP5 PUSH1 0x8 MUL PUSH2 0xD51 JUMP JUMPDEST NOT DUP1 DUP4 AND SWAP2 POP POP SWAP3 SWAP2 POP POP JUMP JUMPDEST PUSH0 PUSH2 0xD84 DUP4 DUP4 PUSH2 0xD5D JUMP JUMPDEST SWAP2 POP DUP3 PUSH1 0x2 MUL DUP3 OR SWAP1 POP SWAP3 SWAP2 POP POP JUMP JUMPDEST PUSH2 0xD9D DUP3 PUSH2 0x942 JUMP JUMPDEST PUSH8 0xFFFFFFFFFFFFFFFF DUP2 GT ISZERO PUSH2 0xDB6 JUMPI PUSH2 0xDB5 PUSH2 0x708 JUMP JUMPDEST JUMPDEST PUSH2 0xDC0 DUP3 SLOAD PUSH2 0xBC4 JUMP JUMPDEST PUSH2 0xDCB DUP3 DUP3 DUP6 PUSH2 0xD0B JUMP JUMPDEST PUSH0 PUSH1 0x20 SWAP1 POP PUSH1 0x1F DUP4 GT PUSH1 0x1 DUP2 EQ PUSH2 0xDFC JUMPI PUSH0 DUP5 ISZERO PUSH2 0xDEA JUMPI DUP3 DUP8 ADD MLOAD SWAP1 POP JUMPDEST PUSH2 0xDF4 DUP6 DUP3 PUSH2 0xD79 JUMP JUMPDEST DUP7 SSTORE POP PUSH2 0xE5B JUMP JUMPDEST PUSH1 0x1F NOT DUP5 AND PUSH2 0xE0A DUP7 PUSH2 0xBF4 JUMP JUMPDEST PUSH0 JUMPDEST DUP3 DUP2 LT ISZERO PUSH2 0xE31 JUMPI DUP5 DUP10 ADD MLOAD DUP3 SSTORE PUSH1 0x1 DUP3 ADD SWAP2 POP PUSH1 0x20 DUP6 ADD SWAP5 POP PUSH1 0x20 DUP2 ADD SWAP1 POP PUSH2 0xE0C JUMP JUMPDEST DUP7 DUP4 LT ISZERO PUSH2 0xE4E JUMPI DUP5 DUP10 ADD MLOAD PUSH2 0xE4A PUSH1 0x1F DUP10 AND DUP3 PUSH2 0xD5D JUMP JUMPDEST DUP4 SSTORE POP JUMPDEST PUSH1 0x1 PUSH1 0x2 DUP9 MUL ADD DUP9 SSTORE POP POP POP JUMPDEST POP POP POP POP POP POP JUMP JUMPDEST PUSH32 0x4E487B7100000000000000000000000000000000000000000000000000000000 PUSH0 MSTORE PUSH1 0x11 PUSH1 0x4 MSTORE PUSH1 0x24 PUSH0 REVERT JUMPDEST PUSH0 PUSH2 0xE9A DUP3 PUSH2 0x82C JUMP JUMPDEST SWAP2 POP PUSH2 0xEA5 DUP4 PUSH2 0x82C JUMP JUMPDEST SWAP3 POP DUP3 DUP3 SUB SWAP1 POP DUP2 DUP2 GT ISZERO PUSH2 0xEBD JUMPI PUSH2 0xEBC PUSH2 0xE63 JUMP JUMPDEST JUMPDEST SWAP3 SWAP2 POP POP JUMP JUMPDEST PUSH0 PUSH1 0x40 DUP3 ADD SWAP1 POP DUP2 DUP2 SUB PUSH0 DUP4 ADD MSTORE PUSH2 0xEDB DUP2 DUP6 PUSH2 0xADC JUMP JUMPDEST SWAP1 POP PUSH2 0xEEA PUSH1 0x20 DUP4 ADD DUP5 PUSH2 0xAA4 JUMP JUMPDEST SWAP4 SWAP3 POP POP POP JUMP JUMPDEST PUSH32 0x4E487B7100000000000000000000000000000000000000000000000000000000 PUSH0 MSTORE PUSH1 0x32 PUSH1 0x4 MSTORE PUSH1 0x24 PUSH0 REVERT INVALID LOG2 PUSH5 0x6970667358 0x22 SLT KECCAK256 PUSH24 0xAA7C4B3F41A97129109958F6F746B5E76CF5FDCAE442B947 SWAP2 PUSH2 0xB56D SWAP6 CREATE2 SHL PUSH5 0x736F6C6343 STOP ADDMOD 0x1F STOP CALLER "
				},
				"gasEstimates": {
					"creation": {
						"codeDepositCost": "784800",
						"executionCost": "816",
						"totalCost": "785616"
					},
					"external": {
						"audits(uint256)": "infinite",
						"getAudit(uint256)": "infinite",
						"getAuditCount()": "2461",
						"logAudit(string,string,string,uint256)": "infinite"
					}
				},
				"methodIdentifiers": {
					"audits(uint256)": "b60e73db",
					"getAudit(uint256)": "17bf37a3",
					"getAuditCount()": "6353bde6",
					"logAudit(string,string,string,uint256)": "16bcc755"
				}
			},
			"storageLayout": {
				"storage": [
					{
						"astId": 18,
						"contract": "ai-audit-blockchain/AuditRegistry.sol:AuditRegistry",
						"label": "audits",
						"offset": 0,
						"slot": "0",
						"type": "t_array(t_struct(AuditRecord)14_storage)dyn_storage"
					}
				],
				"types": {
					"t_address": {
						"encoding": "inplace",
						"label": "address",
						"numberOfBytes": "20"
					},
					"t_array(t_struct(AuditRecord)14_storage)dyn_storage": {
						"base": "t_struct(AuditRecord)14_storage",
						"encoding": "dynamic_array",
						"label": "struct AuditRegistry.AuditRecord[]",
						"numberOfBytes": "32"
					},
					"t_string_storage": {
						"encoding": "bytes",
						"label": "string",
						"numberOfBytes": "32"
					},
					"t_struct(AuditRecord)14_storage": {
						"encoding": "inplace",
						"label": "struct AuditRegistry.AuditRecord",
						"members": [
							{
								"astId": 3,
								"contract": "ai-audit-blockchain/AuditRegistry.sol:AuditRegistry",
								"label": "modelId",
								"offset": 0,
								"slot": "0",
								"type": "t_string_storage"
							},
							{
								"astId": 5,
								"contract": "ai-audit-blockchain/AuditRegistry.sol:AuditRegistry",
								"label": "ipfsCid",
								"offset": 0,
								"slot": "1",
								"type": "t_string_storage"
							},
							{
								"astId": 7,
								"contract": "ai-audit-blockchain/AuditRegistry.sol:AuditRegistry",
								"label": "datasetHash",
								"offset": 0,
								"slot": "2",
								"type": "t_string_storage"
							},
							{
								"astId": 9,
								"contract": "ai-audit-blockchain/AuditRegistry.sol:AuditRegistry",
								"label": "biasScore",
								"offset": 0,
								"slot": "3",
								"type": "t_uint256"
							},
							{
								"astId": 11,
								"contract": "ai-audit-blockchain/AuditRegistry.sol:AuditRegistry",
								"label": "timestamp",
								"offset": 0,
								"slot": "4",
								"type": "t_uint256"
							},
							{
								"astId": 13,
								"contract": "ai-audit-blockchain/AuditRegistry.sol:AuditRegistry",
								"label": "auditor",
								"offset": 0,
								"slot": "5",
								"type": "t_address"
							}
						],
						"numberOfBytes": "192"
					},
					"t_uint256": {
						"encoding": "inplace",
						"label": "uint256",
						"numberOfBytes": "32"
					}
				}
			},
			"userdoc": {
				"kind": "user",
				"methods": {},
				"version": 1
			}
		}
	}
}